:020000040800F2
:10000000881900203902000895400008D93C0008F2
:10001000914000089D0A00088D4B00080000000078
:10002000000000000000000000000000C1400008C7
:100030002B0C00080000000099400008C340000895
:10004000530200085302000853020008530200083C
:10005000530200089B4000085302000853020008A6
:10006000530200085302000853020008530200081C
:10007000530200085302000853020008530200080C
:10008000530200085302000853020008B10A000896
:10009000A10A000853020008530200085302000896
:1000A00053020008E1400008530200085302000810
:1000B000F1400008530200085302000853020008F0
:1000C0005302000853020008530200089D40000834
:1000D000530200087D4B0008530200085302000839
:1000E000530200085302000853020008530200089C
:1000F000530200085302000853020008530200088C
:10010000530200085302000853020008530200087B
:10011000530200085302000853020008530200086B
:10012000E10A000853020008F10A0008010B000868
:10013000530200085302000853020008D10A0008C5
:10014000C10A0008530200085302000853020008C5
:100150005302000853020008110B00085302000864
:10016000530200085302000853020008530200081B
:100170005302000853020008530200080000000068
:10018000530200085302000800F002F800F045F89E
:100190000AA090E8000C82448344AAF10107DA45E2
:1001A00001D100F03AF8AFF2090EBAE80F0013F0EF
:1001B000010F18BFFB1A43F00103184750790000E4
:1001C00070790000103A24BF78C878C1FAD8520775
:1001D00024BF30C830C144BF04680C6070470000C1
:1001E0000023002400250026103A28BF78C1FBD840
:1001F000520728BF30C148BF0B6070471FB507F0DA
:1002000019F89DE8030000F02BFA00F065F91FBD16
:1002100010B5002000F0D7F910BD00F07BFA1146B0
:10022000FFF7ECFF06F0EEFF00F0B3FA03B4FFF7C0
:10023000EFFF03BC00F068FA09488047094800470F
:10024000FEE7FEE7FEE7FEE7FEE7FEE7FEE7FEE786
:10025000FEE7FEE704480549054A064B70470000E3
:10026000CD4000088901000888130020881900206B
:10027000881500208815002053EA020C00F06980E0
:100280002DE9F04B4FF00006002B1FBFB3FA83F5AA
:1002900003FA05F424FA05F65E4012BF1643B2FADB
:1002A00082F502FA05F4C5F120051EBF22FA05FC0D
:1002B00044EA0C04203556EA044C4FEA144418BFB3
:1002C000641C4FF000084FF00009904271EB030CE2
:1002D00039D3002919BFB1FA81F701FA07F6B0FA4C
:1002E00080F700FA07F6C7F120071EBF20FA07FCC7
:1002F00046EA0C062037B6FBF4FCA7EB0507103FD7
:1003000007F01F0BCBF120060CFA0BFB2CFA06F6BC
:1003100044BFB3460026202FA4BF5E464FF0000B1B
:100320005BEA060C08BF4FF0010B19EB0B09ABFBA6
:10033000027C48EB0608C01B06FB02CC0BFB03CC7F
:1003400071EB0C01C1E70B46024641464846BDE849
:10035000F08B13B54FF000004FF00001AFF30080B9
:10036000BDE81C4070472DE9F041074615460E4692
:10037000102000F0C7F804000AD06760C4E90265E5
:1003800000F0BCF80168216004600020BDE8F08145
:100390000120FBE7032A40F2308010F0030C00F04C
:1003A000158011F8013BBCF1020F624498BF11F8AF
:1003B00001CB00F8013B38BF11F8013BA2F1040268
:1003C00098BF00F801CB38BF00F8013B11F00303E0
:1003D00000F02580083AC0F0088051F8043B083A44
:1003E00051F804CBA0E80810F5E7121D5CBF51F8E6
:1003F000043B40F8043BAFF30080D20724BF11F860
:10040000013B11F801CB48BF11F8012B24BF00F8C4
:10041000013B00F801CB48BF00F8012B704710B535
:10042000203AC0F00B80B1E81850203AA0E81850EC
:10043000B1E81850A0E81850BFF4F5AF5FEA027CAD
:1004400024BFB1E81850A0E8185044BF18C918C01C
:10045000BDE810405FEA827C24BF51F8043B40F8BD
:10046000043B08BF7047D20728BF31F8023B48BFA2
:1004700011F8012B28BF20F8023B48BF00F8012BE0
:1004800070474FF0000200B5134694469646203957
:1004900022BFA0E80C50A0E80C50B1F12001BFF43D
:1004A000F7AF090728BFA0E80C5048BF0CC05DF8A3
:1004B00004EB890028BF40F8042B08BF704748BFF1
:1004C00020F8022B11F0804F18BF00F8012B704765
:1004D000704770477047000070B5064C7C44064D6D
:1004E0007D4403E0206820448047241DAC42F9D1BC
:1004F00070BD00004C7600005C760000004870473C
:100500006013002070B5064600F08AF8056806F111
:100510000B0020F00704B4429CBF002070BD2B46A6
:100520006A68BAB11068A04210D304F10801884289
:100530003CBF5068586007D351681019416011687A
:10054000091B016058601460101D70BD134652688D
:10055000002AE7D12146284600F06EF80028DED1B7
:1005600070BD70B50446051F00F05AF80068002CF5
:1005700014BF446870BD002C18BFAC423CBF20467D
:100580006468F8D301680A18AA4218BF456003D10D
:100590002A6805461144016028684119A1421CBF20
:1005A0006C6070BD6168696021680844286070BD36
:1005B00010B500F039F8006810BD10B5044600F021
:1005C00033F8046010BD2DE9F0410646FFF796FFB1
:1005D0008046454613E016B1E068B0420ED120686F
:1005E0002860D4E90101D8F8007088472046FFF759
:1005F000B8FFD8F80000B842EBD100E025462C68DF
:10060000002CE8D1BDE8F08110B500F065F8BDE838
:10061000104000F05BB8000000487047281300202D
:10062000004870473013002000487047281300200E
:10063000704770477047704738B504460A46002037
:100640006946AFF30080002808BF38BD0246009914
:10065000204600F084F8012038BD012000F0BBB82E
:10066000F8B5AFF30080054600200C46102000BF0F
:100670000646A819A0420DD9324669460020AFF3BC
:100680000080070008BF00F0A6F80098A04218BF3D
:100690000546C419FFF7C4FF05600746F01D20F0AA
:1006A00007004619284600F00AF8B44208BFF8BD12
:1006B000A21B31463868BDE8F84000F050B8002170
:1006C0000160C0E90110704710207047002801D078
:1006D00000F01AB87047000010B5002102A000F029
:1006E00061F8012010BD00005349475056464E3A6C
:1006F0002050757265207669727475616C20666E23
:100700002063616C6C65640001491820ABBEFEE794
:10071000260002007546FFF77FFFAE4605006946DA
:10072000534620F00700854618B020B5FFF792FD2C
:10073000BDE820404FF000064FF000074FF00008E2
:100740004FF0000B21F00701AC46ACE8C009ACE863
:10075000C009ACE8C009ACE8C0098D467047034643
:1007600040688C46002818BF88423CBF034640685A
:10077000F8D318681844884207D00CF1030020F021
:100780000700001D411A521A0146081D0A60FFF7B2
:10079000E8BE10B50446AFF300802046BDE8104027
:1007A000FFF744BD70B505460C460A2000E06D1CFD
:1007B00000F018F835B128780028F8D102E0641C60
:1007C00000F010F814B120780028F8D1BDE870408E
:1007D0000A2000F007B810B500F00CF8BDE8104092
:1007E000FFF774BF08B569468DF800000320ABBE63
:1007F00008BD704710B5012805D0002103A0FFF700
:10080000D1FF012010BD09A1F8E70000534947526C
:10081000544D454D3A204F7574206F6620686561D0
:1008200070206D656D6F7279000000003A20486598
:100830006170206D656D6F727920636F7272757073
:10084000746564009FED221A9FED222A20EE010AB2
:10085000B5EE001A30EE010ABDEEC01A11EE100A14
:10086000B5EE400AF1EE10FAB8BF013801EE100AF9
:10087000B8EEC11A30EE410A20EE020ABDEEC01AEF
:100880009FED152A11EE100A002130EE021AB1EB8D
:10089000502F47F208311CBF0020B0EE410AC0F6CD
:1008A000000101EE100A01EB8001B8EE411A30EEB2
:1008B000410A91ED001A91ED012AB7EE003A33EEAC
:1008C000403A23EE011A20EE020A31EE000A704788
:1008D00083F9223E00000044000000C401804280F1
:1008E000436070472DE9F04F85B047880B889F42E1
:1008F00040F08480B0F800B013889B4540F07E80C3
:10090000B1F802E053889E4578D1D0F80480506851
:1009100049680190BC0827F0030008EB800604FB3F
:100920000EF09FED390A07F0030C029101EB001065
:100930004FEA8E0200210090CDE903E70198DDF82F
:1009400008A0009B00EB8109B0EE401A57464046D4
:1009500074B3554627464046B0EE401A95ED002A3E
:1009600090ED003A154490ED014A23EE022A95EDF0
:10097000003A154490ED025A31EE021A24EE032A91
:1009800095ED003A154490ED036A31EE021A25EE1A
:10099000032A95ED003A31EE021A26EE032A31EED3
:1009A000021A013F00F110001544D7D11F4630460E
:1009B000BCF1000F0CD0654690ED002A97ED003A8F
:1009C000043022EE032A31EE021A013D1744F3D11E
:1009D000A9EC011ABEF1010E0AF1040A03F10403A5
:1009E000B2D1DDF80CE0049F714408EB8708BBF13D
:1009F000010B06EB8706A1D1002000E0FD2040B2EC
:100A000005B0BDE8F08F00BF000000009FED201A88
:100A10009FED202A20EE010ABDEEC01A11EE100A49
:100A2000B5EE400AF1EE10FAB8BF013801EE100A37
:100A3000B8EEC11A30EE410A20EE020ABDEEC01A2D
:100A40009FED152A11EE100A002130EE021AB1EBCB
:100A5000502F47F208311CBF0020B0EE410AC0F60B
:100A6000000101EE100A01EB8001B8EE411A30EEF0
:100A7000410A91ED001A91ED012AB7EE003A33EEEA
:100A8000403A23EE011A20EE020A31EE000A7047C6
:100A900083F9223E00000044000000C400BFFEE7CE
:100AA00010B5024800F00BFB10BD00007C000020D8
:100AB00010B5024800F003FB10BD00007C000020D0
:100AC00010B5024800F0FBFA10BD0000E000002065
:100AD00010B5024800F0F3FA10BD0000E00000205D
:100AE00010B5024800F0FEFE10BD0000C401002059
:100AF00010B5024800F0F6FE10BD000064040020AE
:100B000010B5024800F0EEFE10BD000024020020E7
:100B100010B5024800F0E6FE10BD0000C40400203D
:100B20000146087810381823B0FBF3F20848805CBF
:100B3000C865032A05D908686FF30900001D886598
:100B400003E008686FF309008865886D704700004E
:100B500086720008014600208A6A8B69CBB932B1DF
:100B6000012A0DD0022A03D0032A10D10EE000BFC3
:100B7000CB6A03F08073B3F1807F00D1012007E0DE
:100B8000CB6AB3F1C07F00D1012001E000E000BFDB
:100B900034E08B69B3F5005F1AD132B1012A07D076
:100BA000022A03D0032A11D10AE000BF01200EE07F
:100BB000CB6A03F08073B3F1807F00D1012006E09F
:100BC000CB6AB3F1C07F00D1012000E000BF15E087
:100BD00032B1012A05D0022A04D0032A0CD103E045
:100BE00000BF00BF012008E0CB6A03F08073B3F1BF
:100BF000807F00D1012000E000BF00BF704730B50A
:100C00000468246824F4802405682C600468636008
:100C10008468402C04D10468A2600468E16003E0A9
:100C20000468A1600468E26030BD704772B600BF1E
:100C3000FEE710B5024692F82030012B01D0022BBE
:100C400006D110684069084314686061002010BD37
:100C5000506A40F4802050620120F8E7F0B5044665
:100C60000D461E4694F8207020688368A86800B975
:100C700000E000BF012F01D0022F7DD103F0806082
:100C800030B903F0006018B903F0805000287ED01E
:100C9000C3F30161012088403060A86860B9B5F8ED
:100CA00000C0E86840EA4C5C206800F5C07000EBCA
:100CB0000110C0F800C00FE0D5E901C040EACC0047
:100CC000D5F80CC040EA0C00D4F800C00CF5C07C8C
:100CD0000CEB011CCCF80000D5F810C0206800F522
:100CE000C07000EB0110C0F804C0287D01280ED1AF
:100CF000206800F5C07000EB0110406840F4807C73
:100D0000206800F5C07000EB0110C0F804C0D07975
:100D1000000692F806C040EA0C4092F805C040EA8E
:100D20000C2092F804C040EA0C00D4F800C00CF586
:100D3000C07C0CEB011CCCF80C00D078000692F8BB
:100D400002C040EA0C4092F801C040EA0C2092F840
:100D500000C040EA0C00D4F800C00CF5C07C0CEBDD
:100D6000011CCCF80800206800F5C07000EB0110F1
:100D7000006840F0010C01E00FE008E0206800F599
:100D8000C07000EB0110C0F800C00020F0BD606A28
:100D900040F4001060620120F8E7606A40F48020AF
:100DA00060620120F2E70000F0B504460A4694F8BC
:100DB0002050012D01D0022D7ED1424901F5007154
:100DC000086840F001000860086820F47C50086062
:100DD0000868566A40EA06200860107D00F01F0689
:100DE000012000FA06F3C8699843C861A1F50071B3
:100DF000D069C8B9D1F80C029843C1F80C029088A8
:100E000080B2968940EA064601F51070576940F8AD
:100E10003760108880B2168940EA064601F51070E6
:100E2000576900EBC7004660D069012819D1D1F895
:100E30000C021843C1F80C02908880B2168840EA70
:100E4000064601F51070576940F83760908980B206
:100E5000168940EA064601F51070576900EBC70095
:100E60004660906928B9D1F804029843C1F8040299
:100E700004E0D1F804021843C1F80402106928B94B
:100E8000D1F814029843C1F8140204E0D1F8140216
:100E90001843C1F81402106A012804D1D1F81C02C9
:100EA0001843C1F81C02D1F8000220F00100C1F87B
:100EB00000020020F0BDFFE7606A40F4802060621D
:100EC0000120F7E70064004010B5024692F8203098
:100ED000012B01D0022B06D11068406988431468A9
:100EE0006061002010BD506A40F4802050620120F3
:100EF000F8E7704770B5044694F82050012D01D0F2
:100F0000022D7DD151B92068C06800F0030080B97E
:100F1000606A40F400106062012070BD20680069C2
:100F200000F0030028B9606A40F4001060620120FC
:100F3000F3E7206800F5D87000EB0110006800F0BE
:100F400004009060906840B9206800F5D87000EB0C
:100F500001100068400D106007E0206800F5D870AF
:100F600000EB01100068C0085060206800F5D870E0
:100F700000EB0110006800F00200D060206800F56E
:100F8000D87000EB0110406800F00F00082802D371
:100F90000820106108E0206800F5D87000EB01100F
:100FA000406800F00F001061206800F5D87000EB79
:100FB0000110406800F47F40000A9061206800F54D
:100FC000D87000EB01104068000C5061206800F5FB
:100FD000D87000EB011080681870206800F5D87098
:100FE00000EB0110806800F47F40000A5870206810
:100FF00000F5D87000EB0110806800F47F0000E07D
:101000003CE0000C9870206800F5D87000EB0110EF
:101010008068000ED870206800F5D87000EB0110D1
:10102000C0681871206800F5D87000EB0110C06826
:1010300000F47F40000A5871206800F5D87000EB7A
:101040000110C06800F47F00000C9871206800F562
:10105000D87000EB0110C068000ED87131B920685B
:10106000C06840F020002668F06005E02068006954
:1010700040F020002668306100204EE7606A40F4AE
:1010800080206062012048E70146002091F820207E
:10109000012A01D0022A11D10B689B6803F08063FA
:1010A00003B1401C0B689B6803F0006303B1401C54
:1010B0000B689B6803F0805303B1401C70472DE917
:1010C000F05F04460025206846692068D0F8049047
:1010D000206887682068D0F80CA02068D0F810B08D
:1010E0002068D0F8188006F00100002855D007F0DD
:1010F0000100C0B101202168886007F0020018B12A
:101100002046A16A88470EE007F0040010B145F4BC
:10111000006508E007F0080010B145F4805502E0D2
:101120002046616B884707F48070C8B14FF4807027
:101130002168886007F4007018B12046E16A88478A
:101140000EE007F4806010B145F4005508E007F4A4
:10115000006010B145F4804502E02046A16B88474D
:1011600007F48030C8B14FF480302168886007F4FC
:10117000003018B12046216B88470EE007F480202C
:1011800010B145F4004508E007F4002010B145F423
:10119000803502E02046E16B884706F0080038B150
:1011A0000AF0100020B145F4007510202168C860D5
:1011B00006F0040040B10AF0080028B108202168B8
:1011C000C8602046616C884706F0020038B120688C
:1011D000C06800F0030010B12046216C884706F07B
:1011E000400038B10BF0100020B145F480651020AC
:1011F0002168086106F0200040B10BF0080028B11A
:101200000820216808612046E16C884706F010003C
:1012100038B12068006900F0030010B12046A16CCD
:10122000884706F4003040B109F0100028B11020C2
:10123000216848602046216D884706F4803040B11F
:1012400009F0080028B10820216848602046616D37
:10125000884706F4004088B309F0040078B306F428
:10126000807020B108F0010008B145F0010506F4D6
:10127000007020B108F0020008B145F0020506F444
:10128000806020B108F0040008B145F0040506F4C0
:101290000060A0B108F0700088B108F0700040282C
:1012A00017D006DC10280BD020280CD0302819D1FC
:1012B0000CE0502810D0602814D110E01DE019E097
:1012C00045F008050FE045F010050CE045F020055D
:1012D00009E045F0400506E045F0800503E045F4EF
:1012E000807500E000BF00BF2068806920F07000BA
:1012F000216888610420216848602DB1606A284314
:1013000060622046A16D8847BDE8F09F70B5044635
:101310000CB9012070BD94F82000002820D1684845
:101320002064684860646848A0646848E06468486D
:10133000A0626848E0626848206368486063684863
:10134000A0636848E063684820656848606568484D
:10135000A065E06D08B96748E0652046E16D884703
:101360002068006840F001002168086000F04EFE2F
:1013700005460DE000F04AFE401B0A2808D9606AC5
:1013800040F400306062052084F820000120C1E7AD
:101390002068406800F001000028EBD02068006859
:1013A00020F002002168086000F030FE05460DE0E4
:1013B00000F02CFE401B0A2808D9606A40F4003077
:1013C0006062052084F820000120A3E720684068BF
:1013D00000F002000028EBD1207E012806D1206811
:1013E000006840F080002168086005E0206800681F
:1013F00020F0800021680860607E012806D1206806
:10140000006840F040002168086005E0206800683E
:1014100020F0400021680860A07E012806D12068E5
:10142000006840F020002168086005E0206800683E
:1014300020F0200021680860E07E012806D12068A5
:10144000006820F010002168086005E0206800684E
:1014500040F0100021680860207F012806D1206834
:10146000006840F008002168086005E02068006816
:1014700020F0080021680860607F012806D12068FC
:10148000006840F004002168086005E020680068FA
:1014900020F0040021680860D4E9020108432169B2
:1014A0000843616908436168491E08432168C861AF
:1014B00000206062012084F8200000202AE700005C
:1014C0002D1700082B170008311700082F170008E8
:1014D00095170008991700089D1700089317000832
:1014E000971700089B170008331700089F1700087C
:1014F000F30E0008F914000810B586B00446142154
:1015000001A8FEF7BEFF56492068884249D15548D8
:101510000068401C534908600846006801280FD144
:1015200000BF002000905048006840F000704E4915
:1015300008600846006800F00070009000BF00BF1F
:1015400000BF0020009048481038006840F00800B4
:101550004549103908600846006800F0080000900E
:1015600000BF00BF032001900220029000200390E2
:10157000032004900920059001A93C4800F046FC96
:1015800000221146132000F0EDFD132000F0D6FDDF
:1015900000221146142000F0E5FD142000F0CEFDDD
:1015A0005CE033492068884258D100BF0020009099
:1015B0002D48006840F080602B49086008460068AC
:1015C00000F08060009000BF00BF26480068401C0B
:1015D000244908600846006801280FD100BF002098
:1015E00000902148006840F000701F4908600846DC
:1015F000006800F00070009000BF00BF00BF002036
:10160000009019481038006840F00200164910395F
:1016100008600846006800F00200009000BF00BFAC
:10162000602001900220029000200390032004908B
:101630000920059001A90F4800F0E8FB002211469F
:101640003F2000F08FFD3F2000F078FD0022114682
:10165000402000F087FD402000F070FD06B010BD76
:10166000006400400000002040380240000C0240AE
:10167000006800400004024010B5034600242AB967
:10168000586A40F480005862012010BD93F8200091
:10169000012830D10F2927D2DFE801F0080A0C0E0B
:1016A00010121416181A1C1E202224009A6221E01F
:1016B000DA621FE01A631DE05A631BE09A6319E0C7
:1016C000DA6317E01A6415E05A6413E09A6411E0D3
:1016D000DA640FE01A650DE05A650BE09A6509E0DF
:1016E000DA6507E01A6605E0586A40F4800058623F
:1016F000012400BF17E093F8200078B90D2902D02B
:101700000E2904D101E0DA6507E01A6605E0586A9F
:1017100040F480005862012400BF04E0586A40F49D
:101720008000586201242046AFE770477047704739
:101730007047704770B5044694F82000012822D104
:10174000022084F820002068006820F00100216851
:10175000086000F05BFC05460DE000F057FC401B04
:101760000A2808D9606A40F400306062052084F8D5
:101770002000012070BD2068406800F001000028B2
:10178000EBD16062F6E7606A40F4002060620120FD
:10179000F0E7704770477047704770477047704771
:1017A00070B50446A56D00F031FC064694F835008E
:1017B000022808D08020606500BF002084F8340033
:1017C00000BF012070BD2068006820F0160021686D
:1017D00008602068406920F0800021684861206C22
:1017E00008B9A06C28B12068006820F008002168C2
:1017F00008602068006820F001002168086010E09F
:1018000000F004FC801B05280BD920206065032014
:1018100084F8350000BF002084F8340000BF0320A6
:10182000D0E72068006800F001000028E8D194F8B3
:101830005C103F208840A860012084F8350000BF7C
:10184000002084F8340000BF00BFBBE7014691F8D8
:101850003500022803D0802048650120704705200C
:1018600081F835000868006820F001000A681060FF
:101870000020F3E770B504460CB9012070BD94F860
:101880003500022800D1F9E72068006820F0010047
:10189000216808600020216808602168486021688C
:1018A00088602168C860216808612120216848613A
:1018B0002046FFF735F905460020E06320646064A8
:1018C000A064E064206594F85C103F208840A86024
:1018D0000020606584F8350000BF84F8340000BF44
:1018E00000BFCBE7F8B50446002000908C480068A4
:1018F0004FF41651B0FBF1F7A56D2E6894F85C100B
:1019000008208840304098B12068006800F004004A
:1019100070B12068006820F004002168086094F825
:101920005C1008208840A860606D40F00100606590
:1019300094F85C1001208840304068B1206840690C
:1019400000F0800040B194F85C1001208840A8604D
:10195000606D40F00200606594F85C1004208840DF
:10196000304068B12068006800F0020040B194F88F
:101970005C1004208840A860606D40F00400606541
:1019800094F85C1010208840304078B320680068DC
:1019900000F0080050B394F85C1010208840A86054
:1019A0002068006800F4802080B12068006800F49E
:1019B000002028B9206CC8B12046216C884715E06A
:1019C000A06C98B12046A16C88470FE020680068A1
:1019D00000F4807028B92068006820F008002168B1
:1019E0000860206C10B12046216C884794F85C1088
:1019F000202088403040002865D02068006800F032
:101A0000100000285FD094F85C1020208840A86067
:101A100094F83500052828D12068006820F01600C9
:101A2000216808602068406920F0800021684861D2
:101A3000206C08B9A06C28B12068006820F008006C
:101A40002168086094F85C103F208840A86001205D
:101A500084F8350000BF002084F8340000BF206DFA
:101A600010B12046216D8847F8BD2068006800F459
:101A7000802080B12068006800F4002028B9606CE4
:101A800010B12046616C88471DE0E06BD8B120465C
:101A9000E16B884717E02068006800F4807068B93F
:101AA0002068006820F0100021680860012084F898
:101AB000350000BF002084F8340000BFE06B10B197
:101AC0002046E16B8847606D38B3606D00F001001F
:101AD000F0B1052084F835002068006820F001008E
:101AE0002168086000BF0098401C0090B84200D9EF
:101AF00005E02068006800F001000028F3D100BF75
:101B0000012084F8350000BF002084F8340000BFB5
:101B1000E06C10B12046E16C884700BFA4E70000EC
:101B2000040000202DE9F0410446002500F06EFA83
:101B3000074614B90120BDE8F081606A00B100BF1A
:101B4000022084F8350000BF002084F8340000BF74
:101B50002068006820F00100216808600AE000F0B9
:101B600055FAC01B052805D920206065032084F89C
:101B70003500E0E72068006800F001000028EED1A1
:101B80002068056821480540D4E901010843E1685F
:101B900008432169084361690843A1690843E16971
:101BA0000843216A08430543606A042803D1D4E945
:101BB0000B0108430543206805602068456925F04E
:101BC0000705606A0543606A04280DD1A06A0543D1
:101BD000E06A48B12046FEF7BDFF28B140206065AD
:101BE000012084F83500A6E7206845612046FEF70D
:101BF00097FF064694F85C103F208840B0600020B4
:101C00006065012084F83500002094E73F8010F0E3
:101C10002DE9F04704460D4616461F464FF00008D2
:101C2000D4F8589000BF94F83400012802D1022063
:101C3000BDE8F087012084F8340000BF94F8350037
:101C4000012825D1022084F83500002060653B463C
:101C5000324629462046FEF7D2FF94F85C103F201A
:101C60008840C9F808002068006840F01600216824
:101C70000860206C28B12068006840F008002168E6
:101C800008602068006840F001002168086006E0F4
:101C900000BF002084F8340000BF4FF00208404627
:101CA000C6E70000F0B50C46002500220023002105
:101CB00094E0012606FA01F504EA0502AA427DD164
:101CC000484E8F0856F827308E07370F0F26BE4034
:101CD0003340454EB04201D1002623E0434EB0428E
:101CE00001D101261EE0424EB04201D1022619E088
:101CF000404EB04201D1032614E03F4EB04201D124
:101D000004260FE03D4EB04201D105260AE03C4ECC
:101D1000B04201D1062605E03A4EB04201D1072675
:101D200000E008268F073F0FBE409E4224D1364E6A
:101D300036689643344F3E603E1D366896433F1DDD
:101D40003E60314E0C36366896432F4F0C373E605E
:101D50003E1F366896433F1F3E608E07370F0F26A3
:101D600006FA07F31F4E8F0856F827609E431D4F53
:101D70004FEA910C47F82C6006684FEA410C0327A4
:101D800007FA0CF7BE430660CF0800F1200656F8AC
:101D900027604F074FEAD76C0F2707FA0CF7BE43AF
:101DA0004FEAD10C00F1200747F82C60C6684FEAD3
:101DB000410C032707FA0CF7BE4300E00DE0C660B4
:101DC000466801278F40BE43466086684FEA410C53
:101DD000032707FA0CF7BE438660491C1029FFF45D
:101DE00068AFF0BD08380140000002400004024026
:101DF00000080240000C02400010024000140240A3
:101E000000180240001C0240003C0140F8B50246A8
:101E10000B460025002400200021D6E0012606FA0A
:101E200001F51E6806EA0504AC4274D11E7906F07D
:101E30000306012E04D01E7906F00306022E13D1EC
:101E400090684F000326BE40B0434F00DE68BE409E
:101E500030439060506801268E40B0431E79C6F32F
:101E600000168E40304350601E7906F00306032EA4
:101E700009D0D0684F000326BE40B0434F009E6893
:101E8000BE403043D0601E7906F00306022E13D107
:101E9000CF0802F1200656F827004E07F70E0F264E
:101EA000BE40B0434F07FF0E1E69BE403043CF080F
:101EB00002F1200646F8270010684F000326BE40B6
:101EC000B0431E7906F003064F00BE403043106059
:101ED0005E6806F44036002E76D000BF00260096DD
:101EE0003C4E366846F480463A4F3E603E46366881
:101EF00006F48046009600BF00BF374E8F0856F8A4
:101F000027008E07370F0F26BE40B043334EB24234
:101F100002D1002624E057E0314EB24201D1012621
:101F20001EE0304EB24201D1022619E02E4EB242DE
:101F300001D1032614E02D4EB24201D104260FE058
:101F40002B4EB24201D105260AE02A4EB24201D1FF
:101F5000062605E0284EB24201D1072600E00826F9
:101F60008F073F0FBE4030431B4E8F0846F82700B7
:101F7000224E3068A0435E6806F4801606B1204306
:101F80001E4E3060361D3068A0435E6806F40016B1
:101F900006B12043194E361D3060184E361F30688A
:101FA000A0435E6806F4003606B12043134E361F88
:101FB0003060361F3068A0435E6806F4803606B194
:101FC00020430E4E083E3060491C1029FFF426AF16
:101FD000F8BD0000443802400838014000000240CB
:101FE0000004024000080240000C024000100240C1
:101FF0000014024000180240001C0240083C01404E
:102000000AB1816101E00B048361704701480068F7
:1020100070470000700000200348006803490978F9
:1020200008440149086070477000002078000020D3
:1020300010B50D48006840F400700B490860084670
:10204000006840F4806008600846006840F48070D2
:102050000860032000F0C4F80F2000F007F800F03B
:102060002BF8002010BD0000003C024070B5044673
:102070000E4800784FF47A71B1FBF0F00C49096812
:10208000B1FBF0F5284600F03BFE08B1012070BD21
:10209000102C07D200222146501E00F063F805489C
:1020A000046001E00120F2E70020F0E77800002062
:1020B000040000207400002008B500BF002000903C
:1020C0001248006840F480401049086008460068E3
:1020D00000F48040009000BF00BF00BF00200090CF
:1020E000081F006840F08050091F0860084600681B
:1020F00000F08050009000BF00BF00221146052074
:1021000000F030F8052000F019F808BD443802400E
:1021100010B50146084600280BDB00F01F03012222
:102120009A40054B440943F82420BFF34F8FBFF377
:102130006F8F00BF10BD000080E100E0014608463F
:1021400000280DDB00BF00BF00F01F0301229A40F2
:1021500043099B0003F1E023C3F8002100BF00BF47
:1021600000BF70472DE9F05F80460D4616460027F8
:1021700004F04AFC074639462A46334601F0070078
:10218000C0F1070ABAF1040F02D94FF0040A01E0C6
:10219000C0F1070AD14600F1040ABAF1070F02D2D2
:1021A0004FF0000A01E0A0F1030AD4464FF0010A03
:1021B0000AFA09FAAAF1010A0AEA020A0AFA0CFA68
:1021C0004FF0010B0BFA0CFBABF1010B0BEA030B0D
:1021D0004AEA0B042146404604F01EFCBDE8F09F8D
:1021E00000BF00F00702064B19684FF6FF031940C5
:1021F000044B0B4343EA0221014B196000BF7047B7
:102200000CED00E00000FA0570B504460D460CB96F
:10221000012070BD5848006800F00700A84209D2AC
:1022200055490D700846006800F00700A84201D02B
:102230000120EEE7207800F0020002281DD120786E
:1022400000F00400042805D14C48006840F4E05038
:102250004A490860207800F00800082805D147485E
:10226000006840F46040454908604448006820F038
:10227000F000A168084341490860207800F001009F
:10228000A8B36068012807D13C4808380068C0F34B
:102290004040B8B90120BCE76068022802D06068FD
:1022A000032807D1354808380068C0F3406048B9B2
:1022B0000120AEE7314808380068C0F3400008B993
:1022C0000120A6E72D48006820F00300616808435C
:1022D0002A490860FFF79AFE064609E0FFF796FED6
:1022E000801B41F28831884202D9032091E707E040
:1022F0002248006800F00C006168B0EB810FEDD15E
:102300001D48006800F00700A84209D91A490D705D
:102310000846006800F00700A84201D0012078E7D5
:10232000207800F00400042807D11448006820F445
:10233000E050E168084311490860207800F0080087
:10234000082808D10D48006820F46040216940EA5F
:10235000C1000A49086000F03FF808490968C1F364
:102360000311074A515CC8400649086006480068E6
:10237000FFF77CFE00204CE7003C0240083802409A
:102380003E7200080400002074000020014800682C
:10239000704700000400002000B5FFF7F7FF044974
:1023A0000968C1F38221034A515CC84000BD0000A6
:1023B000083802404E72000800B5FFF7E7FF0449F5
:1023C0000968C1F34231034A515CC84000BD0000B6
:1023D000083802404E7200082DE9F047002400251D
:1023E0000026A1462548006800F00C0020B1042812
:1023F00005D008283AD105E0DFF8849039E0DFF80D
:10240000849036E01D48001F006800F03F041B4820
:10241000001F006800F4800078B11A481749091FAE
:102420000968C1F38811A0FB017001462246002310
:102430003846FDF721FF05460EE011480F49091FF8
:102440000968C1F38811A0FB0170014622460023F0
:102450003846FDF711FF05460848001F0068C0F325
:102460000140401C4600B5FBF6F902E0DFF8109091
:1024700000BF00BF4846BDE8F087000008380240B2
:102480000024F400001BB700F8B504460CB9012085
:10249000F8BD207800F00100002874D0F9480068E9
:1024A00000F00C0004280DD0F648006800F00C0085
:1024B000082813D1F348001F006800F48000B0F52D
:1024C000800F0BD1EF4808380068C0F34040002867
:1024D00059D06068002856D10120D9E700BF606854
:1024E000B0F5803F08D1E7480838006840F48030F4
:1024F000E449083908601EE06068B0F5A02F0DD1EE
:10250000E0480838006840F48020DE490839086057
:102510000846006840F4803008600CE0D94808386C
:10252000006820F48030D749083908600846006800
:1025300020F48020086000BF606890B1FFF766FD5E
:10254000054606E0FFF762FD401B642801D9032021
:102550009EE7CC4808380068C0F340400028F1D01E
:1025600011E0FFF753FD054606E0FFF74FFD401B66
:10257000642801D903208BE7C24808380068C0F3FB
:1025800040400028F1D1207800F0020002285FD1FD
:10259000BC48006800F00C0058B1BA48006800F070
:1025A0000C0008281CD1B748001F006800F4800008
:1025B000B0B9B44808380068C0F3400020B1E06802
:1025C000012801D0012063E7AE480838006820F0F8
:1025D000F800216940EAC100AA490839086037E0DB
:1025E000E06800B30120A8490860FFF70FFD054629
:1025F00006E0FFF70BFD401B022801D9032047E747
:10260000A04808380068C0F340000028F1D09D4879
:102610000838006820F0F800216940EAC1009949B3
:102620000839086014E0002097490860FFF7EEFCC5
:10263000054606E0FFF7EAFC401B022801D903200B
:1026400026E7904808380068C0F340000028F1D120
:10265000207800F0080008282CD16069A8B101207A
:102660008A490860FFF7D2FC054606E0FFF7CEFC7A
:10267000401B022801D903200AE782486C30006819
:10268000C0F340000028F1D014E000207F4908602A
:10269000FFF7BCFC054606E0FFF7B8FC401B02282C
:1026A00001D90320F4E677486C300068C0F340009D
:1026B0000028F1D1207800F00400042870D1002710
:1026C00070483830006800F0805090B900BF00209A
:1026D00000906C483830006840F0805069493831CB
:1026E00008600846006800F08050009000BF00BFFE
:1026F00001276748006800F48070B0B9644800683A
:1027000040F4807062490860FFF780FC054606E0EF
:10271000FFF77CFC401B022801D90320B8E65C4887
:10272000006800F480700028F2D000BFA068012883
:1027300008D154486830006840F0010051496831C0
:1027400008601DE0A06805280DD14E48683000687B
:1027500040F004004B49683108600846006840F0CA
:10276000010008600CE047486830006820F0010074
:102770004449683108600846006820F00400086099
:1027800000BFA068A8B1FFF741FC054609E0FFF7CC
:102790003DFC401B41F28831884202D9032077E694
:1027A00026E0384868300068C0F340000028EED0CA
:1027B00013E0FFF72BFC054608E0FFF727FC401B62
:1027C00041F28831884201D9032061E62D48683002
:1027D0000068C0F340000028EFD1012F07D129483D
:1027E0003830006820F0805026493831086000BF3A
:1027F000A069002845D02348006800F00C00082894
:102800005DD0A069022845D100201F490866FFF766
:10281000FDFB054606E0FFF7F9FB401B022801D946
:10282000032035E6174808380068C0F340600028E8
:10283000F1D1D4E907010843616A40EA811101221C
:10284000A06AC2EB500041EA00412C20005D41EA41
:1028500000600C49091F086001200B490866FFF75A
:10286000D5FB054606E0FFF7D1FB401B022801D946
:1028700003200DE6034808380068C0F340600028D4
:10288000F1D049E00838024000004742800E47423C
:1028900000700040002021490866FFF7B7FB05469D
:1028A00006E0FFF7B3FB401B022801D90320EFE548
:1028B0001B480068C0F340600028F2D12CE0A069FA
:1028C000012800D1E4E51648001D0668A06901282A
:1028D00020D006F48001E06981421BD106F03F015F
:1028E000206A814216D147F6C0703040616AB0EB71
:1028F000811F0FD106F440310122A06AC2EB5000C3
:10290000B1EB004F06D106F070612C20005DB1EBF9
:10291000006F01D00120BBE50020B9E5000047426F
:102920000038024070477047F8B504462068466892
:1029300020688568C5F3801048B905F0010030B102
:10294000C6F3801018B12046216C8847F8BDC5F346
:10295000400030B1C6F3C01018B12046616C884702
:10296000F4E7C5F3401030B9C5F3801018B9C5F3CA
:10297000002000287CD0C6F3401000287DD0C5F38D
:102980008010F0B194F8510003280ED0606D40F033
:102990000400606500BF002000902068C0680090BF
:1029A00020688068009000BF0BE000BF002000900E
:1029B0002068C068009020688068009000BF00BF59
:1029C000C4E7C5F3401088B1606D40F00100606558
:1029D00000BF002000902068806800902068006898
:1029E00020F040002168086000BF00BFC5F3002050
:1029F00058B1606D40F00800606500BF0020009095
:102A000020688068009000BF00BF606D78B32068C8
:102A1000406820F0E00021684860012084F85100FF
:102A200006F00200022802D006F0010008B3206878
:102A3000406820F0030021684860E06C50B1104805
:102A4000E16C0865E06CFEF701FF18B1606D40F0C5
:102A500040006065A06C50B10948A16C0865A06C8D
:102A6000FEF7F4FE18B1606D40F04000606503E0D1
:102A700003E02046216F884768E700BF66E7000053
:102A8000AD40000810B504460CB9012010BD606AC5
:102A900038B96068B0F5827F00D105E00021E161BE
:102AA00002E00021216161610021A16294F85100DE
:102AB000C8B9002084F850002E48A0652E48E06573
:102AC0002E4820662E4860662E48A0662E48E06696
:102AD0002E4820672E486067A06F08B92D48A06770
:102AE0002046A16F8847022084F8510020680068C2
:102AF00020F0400021680860A08800F482702189DD
:102B000001F404410843A18901F400610843217CD8
:102B100001F002010843217D01F001010843218BEE
:102B200001F400710843217F01F03801084320219E
:102B3000095D01F080010843218D01F40051084333
:102B4000216808600421A06901EA104094F824106B
:102B500001F010010843216848602068C06920F432
:102B600000602168C86100206065012084F8510080
:102B700000208BE7F92C0008F52C0008FD2C00083C
:102B8000FB2C0008F72C0008FF2C00082729000860
:102B900025290008992B000810B586B00446142199
:102BA00001A8FDF76EFC4C49206888427ED100BF29
:102BB000002000904948006840F480504749086070
:102BC0000846006800F48050009000BF00BF00BFBE
:102BD0000020009041481438006840F002003F494E
:102BE000143908600846006800F00200009000BF39
:102BF00000BF00BF002000900846006840F00100C0
:102C000008600846006800F00100009000BF00BFA7
:102C100018200190022002900020039003200490CD
:102C20000520059001A92E48FFF7F0F880200190BB
:102C300002200290002003900320049005200590BC
:102C400001A92848FFF7E2F82748284908604FF013
:102C5000C0604860002125488160C1604FF48061F8
:102C60000161002141618161C16101624162FEF740
:102C700059FF08B1FDF7DAFF00BF1C48E064846328
:102C800000BF194848301A4908604FF0C0604860DA
:102C90004021174881600021C1604FF480610161CB
:102CA000002141618161C161016200E012E0416285
:102CB000FEF738FF08B1FDF7B9FF00BF0C48A0646C
:102CC000846300BF002211462320FFF74BFA232024
:102CD000FFF734FA06B010BD00300140443802401E
:102CE000000402400000024010640240C4010020C1
:102CF0002402002070477047704770477047704744
:102D000070B504462546681EB0F1807F01D30120CE
:102D10000FE0681E4FF0E02148610F214FF0FF30B7
:102D200003F07AFE00204FF0E0218861072008615F
:102D3000002070BD704770477047000030B50246F4
:102D40000B4600BF92F83C00012801D1022030BDA3
:102D5000012082F83C0000BF022082F83D0010688C
:102D600044681068816824F070041868044310688F
:102D70004460184D1068A8421BD01068B0F1804F15
:102D800017D0154D1068A84213D0144D1068A842F2
:102D90000FD0134D1068A8420BD0124D1068A842F6
:102DA00007D0114D1068A84203D0104D1068A842FA
:102DB00005D121F08001586801431068816001202D
:102DC00082F83D0000BF002082F83C0000BF00BF39
:102DD000BDE7000000000140000400400008004082
:102DE000000C004000040140004001400018004079
:102DF00010B504460CB9012010BD94F83D0060B92F
:102E0000002084F83C00204601F0DAFAA06C08B9F2
:102E10001448A0642046A16C8847022084F83D0035
:102E2000211D206801F06CF9012084F8460000BFE4
:102E300084F83E0001213F200155402001554120EA
:102E4000015500BF00BF012084F842004320015516
:102E5000442001554520015500BF012084F83D0064
:102E60000020C9E7692E000838B504462068B0F193
:102E7000804F18D100BF002000901A48006840F031
:102E80000100184908600846006800F00100009041
:102E900000BF00BF002211461C20FFF763F91C2071
:102EA000FFF74CF91DE010492068884219D100BF96
:102EB000002000900B48001D006840F400300949D4
:102EC000091D08600846006800F40030009000BF4B
:102ED00000BF002211461920FFF744F91920FFF71F
:102EE0002DF938BD4038024000440140014691F8B8
:102EF0003D00012801D001207047022081F83D00EB
:102F00000868C06840F001000B68D8601A4B086878
:102F100098421BD00868B0F1804F17D0174B086853
:102F2000984213D0164B086898420FD0154B08688A
:102F300098420BD0144B0868984207D0134B08688E
:102F4000984203D0124B086898420CD108688068F8
:102F500000F00702062A0CD00868006840F0010063
:102F60000B68186005E00868006840F001000B6815
:102F700018600020C0E7000000000140000400408D
:102F800000080040000C00400004014000400140E7
:102F9000001800402DE9F04104460D46002700BF0F
:102FA00094F83C00012802D10220BDE8F081012004
:102FB00084F83C0000BF022084F83D002068866849
:102FC00026F0770626F47F46206886602868502819
:102FD00033D00CDC202850D004DC00284BD0102843
:102FE00051D149E0302849D040284CD139E06028FF
:102FF0002DD0702807D0B0F5805F03D0B0F5005F0A
:1030000041D10DE041E0D5E902136A68206801F082
:10301000E7F82068866846F077062068866034E026
:10302000D5E902136A68206801F0DAF82068806840
:1030300040F480402168886027E0EA686968206879
:1030400001F0F6F95021206801F0D5F81DE0EA689A
:103050006968206801F0FFF96021206801F0CBF871
:1030600013E0EA686968206801F0E2F9402120680D
:1030700001F0C1F809E000BF00BF00BF2968206867
:1030800001F0B9F801E0012700BF00BF012084F87A
:103090003D0000BF002084F83C0000BF384684E7B4
:1030A00070477047704770B504462068C56820684F
:1030B000066906F0020002281CD105F00200022871
:1030C00018D1401F2168086101202077206880699D
:1030D00000F0030020B12046D4F89010884707E0A4
:1030E0002046D4F8981088472046D4F89C1088478A
:1030F0000020207706F0040004281CD105F004000D
:10310000042818D1C0432168086102202077206874
:10311000806900F4407020B12046D4F890108847B0
:1031200007E02046D4F8981088472046D4F89C1031
:1031300088470020207706F0080008281CD105F0F9
:103140000800082818D1C0432168086104202077AE
:103150002068C06900F0030020B12046D4F8901028
:10316000884707E02046D4F8981088472046D4F8CE
:103170009C1088470020207706F0100010281CD1F2
:1031800005F01000102818D1C043216808610820FC
:1031900020772068C06900F4407020B12046D4F840
:1031A0009010884707E02046D4F8981088472046BA
:1031B000D4F89C1088470020207706F0010050B119
:1031C00005F0010038B16FF0010021680861204668
:1031D000D4F88010884706F0800080280AD105F0D6
:1031E0008000802806D1C043216808612046D4F8B9
:1031F000B010884706F0400040280AD105F0400092
:10320000402806D1C043216808612046D4F88810C0
:10321000884706F0200020280AD105F02000202849
:1032200006D1C043216808612046D4F8A810884719
:1032300070BD000010B586B00446142101A8FDF74A
:1032400020F91149206888421CD100BF002000905D
:103250000E48006840F020000C49086008460068ED
:1032600000F02000009000BF00BF4020019002202D
:1032700002900020039004900320059001A90448C7
:10328000FEF7C4FD06B010BD0044014030380240D6
:103290000014024070472DE9F04104460D461646E1
:1032A000002700BF94F83C00012802D10220BDE8AD
:1032B000F081012084F83C0000BF36B1042E1BD001
:1032C000082E31D00C2E5ED145E02946206800F052
:1032D0009BFF2068806940F00800216888612068B1
:1032E000806920F00400216888612068806929696C
:1032F00008432168886148E02946206800F0BCFF47
:103300002068806940F400602168886120688069D5
:1033100020F480602168886120688069296940EA1A
:1033200001202168886130E02946206800F0E2FF32
:103330002068C06940F008002168C8612068C06941
:1033400020F004002168C8612068C0692969084329
:103350002168C86119E02946206801F007F8206853
:10336000C06940F400602168C8612068C06920F429
:1033700080602168C8612068C069296940EA01202D
:103380002168C86101E0012700BF00BF00BF002025
:1033900084F83C0000BF384689E7000010B50446B9
:1033A0000CB9012010BD94F83D0060B9002084F8EC
:1033B0003C00204601F004F8206E08B9144820664D
:1033C0002046216E8847022084F83D00211D206898
:1033D00000F096FE012084F8460000BF84F83E000D
:1033E00001213F200155402001554120015500BFDA
:1033F00000BF012084F842004320015544200155BC
:103400004520015500BF012084F83D000020C9E798
:10341000153400087047704770477047704710B503
:10342000034600240AB9012010BD93F83D0001288D
:1034300057D11B2952D2DFE801F00E1012141618D2
:103440001A1C1E20222426282A2D303336393C3FD0
:103450004245484B4E009A6442E0DA6440E01A6507
:103460003EE05A653CE09A653AE0DA6538E01A6673
:1034700036E05A6634E09A6632E0DA6630E01A677F
:103480002EE05A672CE09A672AE0DA6728E0C3F852
:10349000802025E0C3F8842022E0C3F888201FE0C4
:1034A000C3F88C201CE0C3F8902019E0C3F89420E6
:1034B00016E0C3F8982013E0C3F89C2010E0C3F88E
:1034C000A0200DE0C3F8A4200AE0C3F8A82007E07C
:1034D000C3F8AC2004E0C3F8B02001E0012400BF31
:1034E0002DE093F83D0048BB0E2924D2DFE801F01F
:1034F00007090B0D0F11131517191B1D1F219A64B6
:103500001BE0DA6419E01A6517E05A6515E09A6560
:1035100013E0DA6511E01A660FE05A660DE09A666C
:103520000BE0DA6609E01A6707E05A6705E09A6778
:1035300003E0DA6701E0012400BF00E00124204637
:1035400072E770477047F8B504460D46164694F882
:10355000420020282DD105B10EB90120F8BD01206F
:1035600020630020606332462946204601F06AFA53
:103570000746206B012819D100BF00200090206869
:103580000068009020684068009000BF00BF00BF46
:1035900000BF21680C3151E8001F41F01000216884
:1035A0000C3141E80002002AF3D100E0012738463F
:1035B000D4E70220D2E77047704770477047000099
:1035C00070B50546284601F051FC0446084850F8FD
:1035D000240058B1064951F8240002F07BFC05484C
:1035E00050F82400401C034941F8240070BD00003D
:1035F0006C0500209805002001460022002391F868
:10360000412091F8423042EA030070472DE9F84F1B
:103610000446206805682068C668206847694FF03E
:103620000009CA4605F00F09B9F1000F0AD105F0EB
:10363000200038B106F0200020B1204601F06EF8DD
:10364000BDE8F88FB9F1000F7CD007F0010018B980
:1036500006F49070002875D005F0010030B106F432
:10366000807018B1606C40F00100606405F00400E7
:1036700030B107F0010018B1606C40F002006064E6
:1036800005F0020030B107F0010018B1606C40F0A5
:103690000400606405F0080048B106F0200010B98D
:1036A00007F0010018B1606C40F008006064606CC5
:1036B000002846D005F0200028B106F0200010B107
:1036C000204601F02BF820684069C0F3801A606C36
:1036D00000F0080010B9BAF1000F2DD0204600F01C
:1036E0009EFF2068406900F04000402820D100BFC4
:1036F00000BF2168143151E8001F21F0400021680B
:10370000143141E80002002AF3D100BFE06B50B150
:103710007F48E16B0865E06BFEF798F888B1E06BD5
:10372000016D88470DE02046A16D884709E009E05A
:103730002046A16D884704E02046A16D88470020FF
:1037400060647DE7206B012878D105F01000002827
:1037500074D006F010000028FAD000BF00200090BE
:1037600020680068009020684068009000BF00BF9B
:103770002068406900F04000402870D1E06B00688C
:1037800040681FFA80F8B8F1000F58D0A08D40456E
:1037900055DDA4F82E80E06BC069B0F5807F43D082
:1037A00000BF00BF21680C3151E8001F21F4807078
:1037B00021680C3141E80002002AF3D100BF00BFAC
:1037C00000BF2168143151E8001F21F00100216879
:1037D000143141E80002002AF3D100BF00BF00BF4E
:1037E0002168143151E8001F21F040002168143194
:1037F00041E80002002AF3D100BF202084F84200F3
:103800000020206300BF00BF21680C3151E8001F79
:1038100021F0100021680C3141E80002002AF3D1A8
:1038200000BFE06BFDF7BCFF02206063A08DE38D5D
:10383000C01A81B22046E26E90470EE052E0A08DA1
:1038400040450AD1E06BC069B0F5807F05D1022008
:103850006063A18D2046E26E9047F1E6FFE7A08D00
:10386000E18D401A1FFA80F8E08DD0B3B8F1000F57
:1038700037D000BF00BF21680C3151E8001F21F490
:10388000907021680C3141E80002002AF3D100BF9A
:1038900000BF00BF2168143151E8001F21F0010072
:1038A0002168143141E80002002AF3D100BF202032
:1038B00084F842000020206300BF00BF21680C3163
:1038C00051E8001F21F0100021680C3141E800028E
:1038D000002AF3D100BF0220606341462046E26E19
:1038E0009047ADE605F0800030B106F0800018B1D9
:1038F000204601F013F9A3E605F0400030B106F0D0
:10390000400018B1204600F0C0FE99E600BF97E6DF
:103910007F44000810B504460CB9012010BDA06911
:1039200000B100E000BF94F8410060B9002084F8C5
:103930004000204600F0CCFE206F08B916482067F2
:103940002046216F8847242084F841002068C06801
:1039500020F400502168C860204600F05DFF206818
:10396000006920F49040216808612068406920F0D7
:103970002A00216848612068C06840F4005021682E
:10398000C86000206064202084F8410084F8420070
:103990000020606300BFC1E7ED39000810B50446A0
:1039A0000E492068884217D10D48006820F01000A9
:1039B0000B49086080210B48FEF774F94FF4007141
:1039C0000948FEF76FF9E06BFDF754FFA06BFDF7B8
:1039D00051FF2520FEF79CFB10BD000000100140A8
:1039E00044380240000402400000024010B586B096
:1039F0000446142101A8FCF744FD4D492068884283
:103A00007ED100BF002000904A48006840F01000BE
:103A1000484908600846006800F01000009000BFA8
:103A200000BF00BF0020009042481438006840F0FA
:103A300002004049143908600846006800F002009E
:103A4000009000BF00BF00BF002000900846006843
:103A500040F0010008600846006800F00100009096
:103A600000BF00BF80200190022002900020039040
:103A7000032004900720059001A92F48FEF7C6F9FE
:103A80004FF4007001900220029000200390032068
:103A900004900720059001A92848FEF7B7F92848A7
:103AA000284908604FF00060486000212548816087
:103AB000C1604FF480610161002141618161C16198
:103AC00001624162FEF72EF808B1FDF7AFF800BFC2
:103AD0001C48E063846300BF194878301A490860C5
:103AE0004FF0006048604021174881600021C160AC
:103AF0004FF480610161002141618161C16100E099
:103B000013E001624162FEF70DF808B1FDF78EF88F
:103B100000BF0D48A063846300BF0022114625202A
:103B2000FEF720FB2520FEF709FB06B010BD0000C4
:103B300000100140443802400004024000000240EE
:103B40004064024064040020C404002010B5034611
:103B500000242AB9586C40F020005864012010BDA0
:103B600093F84100202825D10D291CD2DFE801F06F
:103B700007090B0D0F1113151B1B1B1719009A6456
:103B800017E0DA6415E01A6513E05A6511E09A65EA
:103B90000FE0DA650DE01A660BE05A6609E01A6775
:103BA00007E05A6705E0586C40F020005864012493
:103BB00000BF17E093F8410078B90B2902D00C2917
:103BC00004D101E01A6707E05A6705E0586C40F03D
:103BD00020005864012400BF04E0586C40F020002D
:103BE000586401242046BAE70246002329B9506CE4
:103BF00040F0200050640120704700BF92F8400060
:103C0000012801D10220F7E7012082F8400000BF1F
:103C100092F84100202801D1D16604E0506C40F0B8
:103C200020005064012300BF002082F8400000BF44
:103C30001846E1E770477047F7B50446154694F813
:103C4000410020283ED1019800B10DB90120FEBDF0
:103C500001982062A584E58400206064212084F816
:103C600041001948A16BC8631848A16B0864184843
:103C7000A16BC8640020A16B086501AE23681A1D02
:103C800031682B46A06BFDF7C3FF30B11020606494
:103C9000202084F841000120D9E76FF0400021681E
:103CA000086000BF00BF2168143151E8001F41F0D7
:103CB00080002168143141E80002002AF3D100BFDE
:103CC0000020C4E70220C2E7B945000811460008F9
:103CD000914400087047704700BFFEE710B50F48D9
:103CE0000F4908600320486000210D488160C160D1
:103CF0004FF4802101614FF4E00141610021017620
:103D0000417681760121C176002101770121417739
:103D1000FDF7FCFA08B1FCF789FF10BD0064004014
:103D20007C00002010B50F480F4908600320486050
:103D300000210D488160C1604FF4802101614FF482
:103D4000E001416100210176417681760121C17651
:103D50000021017701214177FDF7D8FA08B1FCF77E
:103D600065FF10BD00680040E000002008B500BFFE
:103D7000002000901648006840F480001449086054
:103D80000846006800F48000009000BF00BF0022D9
:103D900011463820FEF7E6F93820FEF7CFF9002269
:103DA00011463A20FEF7DEF93A20FEF7C7F9002265
:103DB00011463B20FEF7D6F93B20FEF7BFF9002263
:103DC00011464620FEF7CEF94620FEF7B7F908BDAA
:103DD0003038024000B587B0142102A8FCF751FB2F
:103DE00000BF002001904F48006840F002004D499C
:103DF00008600846006800F00200019000BF00BFA4
:103E000000BF002001900846006840F001000860F3
:103E10000846006800F00100019000BF00BF00BF2D
:103E2000002001900846006840F00800086008463D
:103E3000006800F00800019000BF00BF00BF002034
:103E400001900846006840F080000860084600685D
:103E500000F08000019000BF00BF00BF0020019073
:103E60000846006840F0200008600846006800F03E
:103E70002000019000BF00BF00BF00200190084655
:103E8000006840F0040008600846006800F0040084
:103E9000019000BF00BF00BF0020019008460068ED
:103EA00040F0400008600846006800F040000190C3
:103EB00000BF00BF002210211B48FEF7A1F800221E
:103EC00001211A48FEF79CF810200290012003906F
:103ED00004900020059002A91348FDF797FF3020B9
:103EE00002904FF4881003900120049002A910481A
:103EF000FDF78CFF012002904FF488100390012001
:103F0000049002A90B48FDF781FF01200290039065
:103F100004900020059002A90448FDF777FF07B040
:103F200000BD0000303802400000024000040240A2
:103F3000000802400018024010B50F480F49086001
:103F40004FF48270486000210C488160C1600221FA
:103F5000016101214161490281611021C16100219A
:103F60000162416281620A21C162FEF78BFD08B1E4
:103F7000FCF75CFE10BD0000003001404401002051
:103F800000B587B01C216846FCF77BFA1548164936
:103F900008600020486000211348816041F28731A9
:103FA000C160002101618161FEF722FF08B1FCF7C9
:103FB0003DFE0D48FFF7F2F908B1FCF737FE60202F
:103FC000009000200190029004900022694606486B
:103FD000FFF761F908B1FCF729FE0348FFF72AF95A
:103FE00007B000BD004401403803002000B587B091
:103FF00000200390049005900690019002904FF0ED
:1040000080401449086053204860002111488160B5
:1040100040F2E731C160002101618161FEF7E8FEF5
:1040200008B1FCF703FE4FF48050039003A9094840
:10403000FEF7B0FF08B1FCF7F9FD002001900290F7
:1040400001A90448FEF77AFE08B1FCF7EFFD07B0BE
:1040500000BD00008402002010B50B480B49086029
:104060004FF4E1304860002108488160C16001617F
:104070000C21416100218161C161FFF74BFC08B156
:10408000FCF7D4FD10BD000000100140EC0300203F
:1040900000BFFEE700BFFEE77047704710B502485B
:1040A000FEF742FC10BD00004401002070B505463B
:1040B000AC6B0020E087E0862046216F884770BD0A
:1040C000704710B5FDF7A8FF10BD00000348006859
:1040D00040F47000014908607047000088ED00E07E
:1040E00010B50248FEF7DFFF10BD000038030020C6
:1040F00010B50248FEF7D7FF10BD00008402002073
:1041000010B502682B4B98420ED0B0F1804F0BD007
:10411000294B984208D0294B984205D0284B984209
:1041200002D0284B984203D122F070024B681A4308
:10413000204B984220D0B0F1804F1DD01E4B9842AA
:104140001AD01E4B984217D01D4B984214D01D4BCD
:10415000984211D01C4B98420ED01C4B98420BD069
:104160001B4B984208D01B4B984205D01A4B9842E3
:1041700002D01A4B984203D122F44072CB681A4302
:1041800022F080034C6943EA04028B68C3620B6827
:104190008362084B984202D00A4B984201D10B69C6
:1041A0000363036843F00403036001234361026077
:1041B00010BD000000000140000400400008004065
:1041C000000C004000040140004001400044014058
:1041D0000048014000180040001C00400020004042
:1041E00030B50C46816821F47F4142EA032525431E
:1041F0002943816030BD0A46816821F0700142F098
:10420000070319438160704730B5026A056A25F0DB
:10421000010505624368846924F0700424F00304F6
:104220000D682C4322F002028D682A43104DA842EB
:1042300000D103E00F4DA84206D100BF22F00802D2
:10424000CD682A4322F00402094DA84202D0094D4C
:10425000A84207D123F4807323F400734D692B43E4
:104260008D692B43436084614D684563026230BDB4
:10427000000001400004014030B5026A056A25F0E3
:10428000100505624368846924F4E04424F4407412
:104290000D6844EA052422F020028D6842EA0512E6
:1042A000124DA84200D103E0114DA84207D100BF32
:1042B00022F08002CD6842EA051222F040020B4D46
:1042C000A84202D00A4DA84209D123F4806323F406
:1042D00000634D6943EA85038D6943EA85034360C2
:1042E00084614D688563026230BD000000000140BA
:1042F0000004014030B5026A056A25F48075056244
:104300004368C46924F0700424F003040D682C434E
:1043100022F400728D6842EA0522124DA84200D1B3
:1043200003E0114DA84207D100BF22F40062CD681E
:1043300042EA052222F480620A4DA84202D00A4DC8
:10434000A84209D123F4805323F400534D6943EA72
:1043500005138D6943EA05134360C4614D68C56365
:10436000026230BD000001400004014030B5036A24
:10437000056A25F4805505624468C26922F4E0426A
:1043800022F440720D6842EA052223F400538D683E
:1043900043EA0533084DA84202D0084DA84204D193
:1043A00024F480444D6944EA85144460C2614D6838
:1043B0000564036230BD00000000014000040140BC
:1043C0000E4940F8801F0E4941600E4981600E4938
:1043D000C1600E4901610E4941610E4981610E497A
:1043E000C1610E4901620E4941620E4981620E4966
:1043F000C1620E4901638038704700001B34000819
:104400001D3400084335000845350008A330000876
:10441000A530000895320008173400081934000848
:10442000A1300008372D0008392D0008352D00086F
:1044300030B50B461446026A056A25F0010505628F
:10444000816921F0F00141EA041122F00A021A43C5
:104450008161026230BD30B50B461446026A056ABE
:1044600025F010050562816921F4704141EA0431AB
:1044700022F0A00242EA03128161026230BD70B5EF
:104480000546AC6B0020E0852046A16D884770BDD5
:1044900070B505460026AC6B20684069C0F3C016B5
:1044A00094F84100212805D126B10020E08420465F
:1044B00000F0FBF820684069C0F3801694F84200D1
:1044C000222805D126B10020E085204600F0A7F87B
:1044D000606C40F0100060642046A16D884770BD9C
:1044E00070B50546AC6B2868006800F48070002841
:1044F00042D1E08500BF00BF21680C3151E8001FA8
:1045000021F4807021680C3141E80002002AF3D1C7
:1045100000BF00BF00BF2168143151E8001F21F027
:1045200001002168143141E80002002AF3D100BFE4
:1045300000BF00BF2168143151E8001F21F0400086
:104540002168143141E80002002AF3D100BF202085
:1045500084F84200206B01280ED100BF00BF216803
:104560000C3151E8001F21F0100021680C3141E8A6
:104570000002002AF3D100BF00206063206B0128F5
:1045800004D1A18D2046E26E904702E02046616D85
:10459000884770BD70B50546AC6B01206063206B29
:1045A000012805D1A08D41082046E26E904702E027
:1045B0002046216D884770BD70B50546AC6B2868F4
:1045C000006800F48070F8B90020E08400BF00BFEC
:1045D0002168143151E8001F21F080002168143156
:1045E00041E80002002AF3D100BF00BF00BF2168EC
:1045F0000C3151E8001F41F0400021680C3141E8C6
:104600000002002AF3D102E02046E16C884770BD29
:1046100070B50446A56B2846A96C884770BD00BFDD
:1046200000BF02680C3252E8002F22F49071026839
:104630000C3242E80013002BF3D100BF00BF00BFD3
:104640000268143252E8002F22F00101026814328D
:1046500042E80013002BF3D100BF016B01290ED1FA
:1046600000BF00BF02680C3252E8002F22F0100198
:1046700002680C3242E80013002BF3D100BF202166
:1046800080F8421000210163704710B5044620688D
:10469000C06820F040002168C860202084F84100F4
:1046A0002046E16C8847002010BD00BF00BF0268B3
:1046B0000C3252E8002F22F0C00102680C3242E8AE
:1046C0000013002BF3D100BF202180F84110704768
:1046D000094981640949C16409490165094941657C
:1046E000094981650949C165094901660949416668
:1046F0000949C16670470000D73C0008D53C000856
:10470000373C0008353C0008C1350008B9350008C1
:10471000BD350008BB350008B7350008F8B50446BC
:104720000025002694F84200222873D1A068B0F535
:10473000805F0BD1206948B9A66A20684068C0F341
:1047400008003080A06A801CA06214E0A56AA068FE
:10475000B0F5805F03D0A06828B9206918B9206837
:104760004068287004E02068406800F07F002870EE
:10477000A06A401CA062E08D401E80B2E085002847
:1047800046D12068C06820F020002168C8602068F9
:10479000C06820F480702168C8602068406920F0FB
:1047A000010021684861202084F8420000206063F5
:1047B000206B012826D10020206300BF00BF2168A4
:1047C0000C3151E8001F21F0100021680C3141E844
:1047D0000002002AF3D100BF2068006800F010003A
:1047E00010280AD100BF00200090206800680090C7
:1047F00020684068009000BF00BFA18D2046E26E97
:10480000904702E02046616D88470020F8BD01E036
:104810000020FBE70220F9E72DE9F84F0446206865
:10482000006920F44050E16808432168086121696B
:10483000A068084361690843E16908430090206863
:10484000C06849F20C618843009908432168C86038
:104850002068406920F44070A169084321684861DC
:1048600076492068884203D075492068884203D180
:10487000FDF7A2FD814602E0FDF78EFD8146E0696D
:10488000B0F5004F6CD102206168A0FB01500346D7
:104890001920A9FB007001462A463846FBF7ECFCBC
:1048A0006421B0FBF1F04FEA001A02206168A0FB1E
:1048B00001510B461920A9FB00712A463846FBF727
:1048C000DBFC834602206168A0FB015003461920EF
:1048D000A9FB00712A463846FBF7CEFC6421B0FBE9
:1048E000F1F000EBC00101EB0010ABEB80003221D6
:1048F00001EBC0006421B0FBF1F000F0F8000AEB1E
:10490000400A02206168A0FB015003461920A9FB60
:10491000007001462A463846FBF7AEFC834602206B
:104920006168A0FB015003461920A9FB00712A46CB
:104930003846FBF7A1FC6421B0FBF1F000EBC001AD
:1049400001EB0010ABEB8000322101EBC0006421D1
:10495000B0FBF1F000F007005044216888606AE085
:1049600004206168A0FB015003461920A9FB0070D8
:1049700001462A463846FBF77FFC824604206168E0
:10498000A0FB015003461920A9FB007001462A46EE
:104990003846FBF771FC6421B0FBF1F000EBC0017D
:1049A00001EB0010AAEB8000322101EB0010642122
:1049B000B0FBF1F000F0F00A04206168A0FB017088
:1049C00003461920A9FB00513A462846FBF754FC40
:1049D0006421B0FBF1F00AEB001A04206168A0FB2F
:1049E00001510B461920A9FB00712A463846FBF7F6
:1049F00043FC834604206168A0FB01500346192054
:104A0000A9FB007001462A463846FBF735FC6421B5
:104A1000B0FBF1F000EBC00101EB0010ABEB80004C
:104A2000322101EB00106421B0FBF1F000F00F0027
:104A3000504421688860BDE8F88F000000100140F4
:104A40000014014077B581B0044615460298A06273
:104A5000A58500206064222084F842002C48E16B88
:104A6000C8632C48E16B08642B48E16BC8640020E4
:104A7000E16B086502AE32682368191D2B46E06BB6
:104A8000FDF7C6F838B110206064202084F8420099
:104A9000012004B070BD00BF0020009020680068B5
:104AA000009020684068009000BF00BF206970B18E
:104AB00000BF00BF21680C3151E8001F41F4807035
:104AC00021680C3141E80002002AF3D100BF00BF89
:104AD00000BF2168143151E8001F41F00100216836
:104AE000143141E80002002AF3D100BF00BF00BF2B
:104AF0002168143151E8001F41F040002168143151
:104B000041E80002002AF3D100BF0020C1E7000005
:104B1000E14400089545000891440008014691F8D9
:104B20004100212828D18868B0F5805F0BD1086941
:104B300048B90A6A1088C0F308000B685860086A10
:104B4000801C086205E00B6A581C086218780B6824
:104B50005860C88C401E80B2C88458B90868C068C4
:104B600020F080000B68D8600868C06840F0400002
:104B70000B68D860002070470220FCE710B502489F
:104B8000FEF744FD10BD0000EC03002000BFFEE76F
:104B900010B5174A1749184801F0B6F8174A1849CE
:104BA000184801F061F8184A1849194801F05CF8F2
:104BB0001849174800F0A5FF1749154800F0A1FF54
:104BC0001649104800F09DFF15490E4800F099FF66
:104BD000104800F0EEFE104800F0EBFE0F4800F029
:104BE000E8FE0F4800F0E5FE0E4800F077FB10BD30
:104BF000494C0008840200200C000020C005002061
:104C00007C000020D0070020C8060020E000002023
:104C100034080020980800205C090020200A0020A9
:104C2000E40A0020EC030020C2791206837942EAEC
:104C30000342437942EA0322037942EA030100EE88
:104C4000901AB0EE600A704710B537480068401CF3
:104C5000354908600846006840F6B831884202D1FC
:104C60000120324908703049086800EBD0714910C2
:104C7000A0EB4101F9B92D49097801291BD12C4834
:104C800000F097FE2B4800F094FE2B4800F058FAF5
:104C9000294A68322849294801F0D4FC284801F003
:104CA0003DFB254801F03CF9234A5C32A2F10801A2
:104CB000224801F0A0FC1C49086800EBD0714910A3
:104CC000A0EB4101F9B11949097801291BD11D480F
:104CD00000F06FFE1C4800F06CFE1C4800F030FA3B
:104CE0001A4A683219491A4801F0ACFC194801F017
:104CF00015FB164801F014F9144A5C32A2F10801C0
:104D0000134801F078FC144800F01FFF134800F02E
:104D10001CFF054800680A2190FBF1F201FB12001C
:104D200008B900F07FF910BD3400002030000020E9
:104D3000980800205C090020E00E00205810002098
:104D4000D0100020200A0020E40A00209C0F002040
:104D500094100020FC11002034080020D00700200F
:104D60000146074A0868904201D101207047054A70
:104D70000868904201D10220F8E70020F6E7000021
:104D8000006400400068004001462B4A08689042D9
:104D900001D1012070470868B0F1804F01D1022095
:104DA000F8E7264A0868904201D10320F2E7244A36
:104DB0000868904201D10420ECE7224A086890423A
:104DC00001D10520E6E7204A0868904201D106207B
:104DD000E0E71E4A0868904201D10720DAE71C4A42
:104DE0000868904201D10820D4E71A4A0868904226
:104DF00001D10920CEE7184A0868904201D10A2063
:104E0000C8E7164A0868904201D10B20C2E7144A4D
:104E10000868904201D10C20BCE7124A0868904211
:104E200001D10D20B6E7104A0868904201D10E204A
:104E3000B0E70020AEE700000000014000040040A1
:104E400000080040000C004000100040001400402A
:104E5000000401400040014000440140004801407E
:104E600000180040001C0040002000400146134A8A
:104E70000868904201D101207047114A08689042A9
:104E800001D10220F8E70F4A0868904201D10320BF
:104E9000F2E70D4A0868904201D10420ECE70B4A82
:104EA0000868904201D10520E6E7094A0868904267
:104EB00001D10620E0E70020DEE7000000100140FD
:104EC0000044004000480040004C004000500040BA
:104ED00000140140B0EE401A01228A40521E01EE39
:104EE000902A30EEC10AB0EE402A00EE100AB8EE69
:104EF000400A22EE000AB8EE613AC0EE032A32EE12
:104F0000810A704700B593B0302107A8FBF7B9FAC2
:104F1000142102A8FBF7B5FA00BF00200190234836
:104F2000006840F08050214908600846006800F0A1
:104F30008050019000BF00BF002001901C48006815
:104F400040F480401A4908600846006800F4804038
:104F5000019000BF012007900004089002200D90EE
:104F600041050E9106210F91A82110910221119166
:104F70000421129107A8FDF787FA08B1FBF756FE46
:104F80000F20029002200390002004904FF4A050C4
:104F900005904FF480500690052102A8FDF734F9E2
:104FA00008B1FBF743FE13B000BD000040380240DB
:104FB00000700040064909780A2908DA04490A788D
:104FC0000978491C024B1970024941F822007047C8
:104FD0003C0000208C0E002070B505460E46284689
:104FE000FFF744FF0446054850F8240028B1034960
:104FF00051F82400314600F0A6FE70BD6C0500207B
:1050000070B505462846FFF731FF0446044850F8BE
:10501000240020B1024951F8240000F0DBFE70BDED
:105020006C05002010B50024002024E0224951F82E
:1050300020100B782146621CD4B2204A53541E49DA
:1050400051F820104B782146621CD4B21B4A5354AD
:10505000194951F820108B782146621CD4B2174AA6
:105060005354154951F82010CB782146621CD4B214
:10507000124A5354401C124909788842D6DB002258
:105080002046611CCCB20D490A542046611CCCB2AA
:105090000A490A5480222046611CCCB207490A54AE
:1050A0007F222046611CCCB204490A54224605489E
:1050B00000F06FFE10BD00008C0E0020B40E00202A
:1050C0003C000020A80B002070B5054605B970BD56
:1050D0002846FFF745FE0446054850F8240020B155
:1050E000034951F8240000F0AFFC00BFEFE70000D7
:1050F0002405002070B5054605B970BD2846FFF7A8
:105100002FFE0446054850F8240020B1034951F809
:10511000240000F01AFD00BFEFE700002405002086
:1051200070B504462046FFF72FFE0546034850F8A9
:105130002560304600F000FE70BD00003005002004
:1051400010B5044694F8B800012855D154480078A9
:1051500000F0010060B9524801F072FC40B15148C2
:1051600090ED010A504880ED000A4D48AFF30080F1
:105170004E48007800F0010060B94C4801F060FC36
:1051800040B14B4890ED010A4A4880ED000A47487B
:10519000AFF30080434890ED010A4348D0ED000A88
:1051A00030EE600AF1EE400A9FED431A9FED430A8C
:1051B00000EE810A84ED000A3D4890ED010A3D4869
:1051C000D0ED000A30EE600AF1EE400A9FED3A1A87
:1051D0009FED3B0A00EE810A84ED030A314890ED11
:1051E000020AB1EE400A84ED050A314890ED020A48
:1051F000B1EE400A84ED080A94F8B80002284DD1B7
:105200003048007800F0010060B92E4801F018FC29
:1052100040B12D4890ED010A2C4880ED000A294844
:10522000AFF300802A48007800F0010060B92848F8
:1052300001F006FC40B1274890ED010A264880EDB8
:10524000000A2348AFF300801F4890ED010A1F4871
:10525000D0ED000A70EE600A9FED171A9FED170A55
:1052600000EE810A84ED000A1A4890ED010A1A48FE
:10527000D0ED000A70EE600A9FED0F1A9FED100A44
:1052800000EE810A84ED030A0F4890ED020A84EDD6
:10529000050A104890ED020A84ED080A10BD0000CE
:1052A00014000020980800201800002010000020A2
:1052B0005C0900201C0000204BEAC43EA83867406F
:1052C000E435FA3F24000020200A002028000020B6
:1052D00020000020E40A00202C00002010B5044625
:1052E00000220549054800F0D1FD044800F05FFDAB
:1052F0000348FFF75FFE10BDEC030020A80B002061
:105300003800002030B503460C46002015E093F825
:105310008110595C215493F88150691CCD1701EB21
:105320005565ED11A1EBC51583F88150B3F88210D6
:10533000491EA3F88210411CC8B2904208DA00BF8F
:10534000B3F8821009B9012100E000210029DED064
:1053500030BD30B503460C46002013E0215C93F8C5
:105360008050595513F8805F691CCD1701EB5565C6
:10537000ED11A1EBC5151D705988491C5980803B62
:10538000411CC8B2904209DA00BFB3F882108029EC
:1053900001D1012100E000210029DFD030BD2DE93D
:1053A000F04104460D4600222FE0B4F80031981871
:1053B000C31700EB13731B11A0EB031104EB0110D7
:1053C000007B01280DD104EB01100068000E2B6852
:1053D000B0EB136F05D1287804EB01131B789842CA
:1053E00009D004EB0110007B70B904EB01100068D8
:1053F0002B68984208D104EB011095E8C810A0E88A
:10540000C8100120BDE8F081521CB4F8040190429C
:10541000CBDC204601F0C0FA08B1FBF707FCB4F87A
:10542000020104EB0011D5E90206D5E90023C1E928
:1054300002060CC1B4F80211481CC11700EB11712F
:105440000911A0EB0111A4F80211B4F80401401CE9
:10545000A4F804010120D5E70021A0F80011A0F86C
:105460000211A0F8041170472DE9F04104460F46DF
:1054700015461E46A784FD2084F8BC009FED680AEF
:1054800084ED070AB7EE000A84ED0A0A002084F8CA
:10549000260026B9012084F82600BDE8F0812663A5
:1054A000072D7CD2DFE805F0041D364F68839C0091
:1054B000F2EE0C4ABAEE0C4AF1EE043A9FED593A7C
:1054C000DFED592A9FED572ADFED581A9FED581A44
:1054D000DFED580A9FED580A04F1340000F098FA05
:1054E0009BE0F3EE014ABBEE014AF1EE043A9FED78
:1054F0004D3ADFED4D2A9FED4B2ADFED501A9FED1F
:10550000501ADFED4C0A9FED4C0A04F1340000F014
:105510007FFA82E0F3EE014ABBEE014AF1EE043A73
:105520009FED403ADFED402A9FED3E2ADFED431A22
:105530009FED431ADFED3F0A9FED3F0A04F134006F
:1055400000F066FA69E0DFED3F4A9FED3F4ADFED8C
:105550003F3A9FED343ADFED342A9FED322AF3EEE5
:10556000041ABBEE041ADFED330A9FED330A04F18F
:10557000340000F04DFA50E0DFED354A9FED354A3A
:10558000DFED323A9FED273ADFED332A9FED252AF2
:10559000F2EE0E1ABAEE0E1ADFED260A00E038E03F
:1055A0009FED250A04F1340000F032FA35E0F1EE07
:1055B000064AB9EE064AF1EE043A9FED1A3ADFEDDB
:1055C0001A2A9FED182ADFED251A9FED251ADFED27
:1055D000190A9FED190A04F1340000F019FA1CE0D1
:1055E000DFED204A9FED204ADFED183A9FED0D3A9E
:1055F000DFED192A9FED0B2ADFED181A9FED181A1F
:10560000DFED0C0A9FED0C0A04F1340000F000FA03
:1056100003E0012084F8260000BF00BF00BF3CE784
:10562000DB0FC940000000000000FA430000044204
:10563000000004C2B81E4941B81E49C100003042F2
:10564000000030C200007042000070C20000C8427A
:105650000000F0420000F0C200409C4500004842BB
:10566000000048C200001042000010C22DE9F041C5
:1056700004460D4600BFA08C2988C1F3072188424B
:105680007DD1287B0128FBD12868C0F30566012164
:1056900023200155022E01D0122E71D169792A7969
:1056A00041EA022094ED0E1AF0EE410A94ED0D1A33
:1056B000B0EE410A1021FFF70DFC84ED010AEA79F2
:1056C000A97942EA012094ED101AF0EE410A94ED16
:1056D0000F1AB0EE410A1021FFF7FCFB84ED020A1D
:1056E0006A7A297A42EA012094ED161AF0EE410A0C
:1056F00094ED151AB0EE410A1021FFF7EBFB84ED93
:10570000040AE97AA87A41EA002000EE100AB8EE0D
:10571000C00AF2EE040A80EE201A84ED051A286809
:10572000C0F3054121842868C0F38150022803D1C9
:1057300001212220015502E000212220015594ED93
:10574000070ADFED8B0AB4EE600AF1EE10FA03D11E
:1057500094ED010A84ED070A94ED020ADFED850A53
:10576000B4EEE00AF1EE10FA08DC94ED020ADFED87
:10577000820AB4EEE00AF1EE10FA30D201E0F4E071
:1057800032E0D4ED010A94ED071A70EEC10AB0EED2
:10579000600AD4ED060A70EE800AC4ED060ADFED59
:1057A000770AB4EEE00AF1EE10FA08D2D4ED060A58
:1057B0009FED6F1A70EE810AC4ED060A0EE0DFED70
:1057C0006F0AB4EEE00AF1EE10FA07DDD4ED060A36
:1057D0009FED671A70EEC10AC4ED060A00BF94ED92
:1057E000010A84ED070ABFE0152E05D168792979F1
:1057F00040EA01212184B7E0112EF4D1297968799A
:1058000041EA00280027ABE05D4830F8170040452A
:1058100073D1182F10D2DFE807F00C10161C2228C5
:105820002E343A40464C52585E646A71777D8389C3
:10583000909D287A84F85C0090E0281DFFF7F4F929
:1058400084ED180A8AE0281DFFF7EEF984ED190AA5
:1058500084E0281DFFF7E8F984ED1A0A7EE0281D90
:10586000FFF7E2F984ED1B0A78E0281DFFF7DCF969
:1058700084ED1C0A72E0281DFFF7D6F984ED1D0A9D
:105880006CE0281DFFF7D0F984ED1E0A66E0281DA4
:10589000FFF7CAF984ED1F0A60E0281DFFF7C4F97D
:1058A00084ED200A5AE0281DFFF7BEF984ED210A95
:1058B00054E0281DFFF7B8F984ED220A4EE0281DB8
:1058C000FFF7B2F984ED230A48E0281DFFF7ACF991
:1058D00084ED240A42E0281DFFF7A6F984ED250A8D
:1058E0003CE0281DFFF7A0F984ED260A36E0281DCC
:1058F000FFF79AF984ED270A30E030E0281DFFF722
:1059000093F984ED280A29E0281DFFF78DF984ED2D
:10591000290A23E0281DFFF787F984ED2A0A1DE0F4
:10592000281DFFF781F984ED2B0A17E0697A287AA0
:1059300041EA0021B020015110E0287A0106687A7E
:1059400041EA0041A87A41EA0020E97A0843B421FB
:10595000085103E0297A84F8B81000BF00BF02E0C4
:10596000172F7FF751AF00BF00BFBDE8F0810000E7
:10597000DB0FC9400AD7A33C0AD7A3BCDB0F4940C1
:105980005672000870B504460D4601202873206B3E
:1059900058B1206B01F000F838B92946206BFFF7A9
:1059A000FEFC00212320015502E0022084F826009D
:1059B00070BD1FB5044694F8BC004FF0407141EA39
:1059C0000020A18C084300900020019002902068E4
:1059D00069468268204690471FBD00002DE9F041CE
:1059E00004460D4616461F46204600F027F804469A
:1059F000054820603B46324629462046FFF734FDE5
:105A00002046BDE8F0810000E072000800BF70474A
:105A100080ED000AC0ED010A80ED021AC0ED031A04
:105A200080ED042AC0ED052A80ED063AC0ED073A64
:105A300080ED084AC0ED094A704700000149016045
:105A400070470000F872000870B588B004462068FE
:105A500010B194F8280008B908B070BD04F15C03D7
:105A600004F1400200212068FBF744FA00B1F3E79B
:105A7000A06C08B1012000E000208DF81C009DF80A
:105A80001C0008B9206C00E0606C0490D4E9170198
:105A9000CDE90501002510E004F1080050F82500CB
:105AA00048B104F1080151F8250051F825100968A2
:105AB000CA6804A99047681CC5B294F82800A84297
:105AC000EADC002517E004F12C0050F8250080B135
:105AD00004F15C000390D4E91412A06DCDE900122A
