:020000040800F2
:10000000801D002079020008054F00082D470008D8
:10001000014F0008910B0008195D00080000000066
:100020000000000000000000000000004D52000829
:100030003F0E000800000000094F00084F52000862
:10004000930200089302000893020008930200083C
:10005000930200080B4F0008410E000893020008AD
:1000600093020008930200084B0E00089302000858
:10007000930200089302000893020008930200080C
:10008000930200089302000893020008A50B0008E1
:10009000950B00089302000893020008550E000813
:1000A000930200086D5200089302000893020008B2
:1000B0007D52000893020008930200089302000892
:1000C0009302000893020008930200080D4F0008F5
:1000D00093020008095D00089302000893020008DB
:1000E000930200089302000893020008930200089C
:1000F000930200089302000893020008930200088C
:10010000930200089302000893020008930200087B
:10011000930200089302000893020008930200086B
:10012000F50C000893020008050D0008150D0008E5
:10013000930200089302000893020008C50B000810
:10014000B50B000893020008930200089302000810
:100150009302000893020008250D0008930200088E
:10016000930200089302000893020008930200081B
:1001700093020008930200089302000800000000A8
:10018000930200089302000800F002F800F065F8FE
:100190000AA090E8000C82448344AAF10107DA45E2
:1001A00001D100F05AF8AFF2090EBAE80F0013F0CF
:1001B000010F18BFFB1A43F00103184708A1000004
:1001C00028A100000A444FF0000C10F8013B13F086
:1001D000070408BF10F8014B1D1108BF10F8015BA0
:1001E000641E05D010F8016B641E01F8016BF9D193
:1001F00013F0080F1EBF10F8014BAD1C0C1B09D1EA
:100200006D1E58BF01F801CBFAD505E014F8016B5B
:1002100001F8016B6D1EF9D59142D6D370470000ED
:100220000023002400250026103A28BF78C1FBD8FF
:10023000520728BF30C148BF0B6070471FB509F097
:10024000AAFB9DE8030000F02BFA00F065F91FBD42
:1002500010B5002000F0D7F910BD00F07BFA114670
:10026000FFF7ECFF09F05CFB00F0B3FA03B4FFF713
:10027000EFFF03BC00F068FA0948804709480047CF
:10028000FEE7FEE7FEE7FEE7FEE7FEE7FEE7FEE746
:10029000FEE7FEE704480549054A064B70470000A3
:1002A000595200088901000880170020801D002095
:1002B000801900208019002053EA020C00F06980A8
:1002C0002DE9F04B4FF00006002B1FBFB3FA83F56A
:1002D00003FA05F424FA05F65E4012BF1643B2FA9B
:1002E00082F502FA05F4C5F120051EBF22FA05FCCD
:1002F00044EA0C04203556EA044C4FEA144418BF73
:10030000641C4FF000084FF00009904271EB030CA1
:1003100039D3002919BFB1FA81F701FA07F6B0FA0B
:1003200080F700FA07F6C7F120071EBF20FA07FC86
:1003300046EA0C062037B6FBF4FCA7EB0507103F96
:1003400007F01F0BCBF120060CFA0BFB2CFA06F67C
:1003500044BFB3460026202FA4BF5E464FF0000BDB
:100360005BEA060C08BF4FF0010B19EB0B09ABFB66
:10037000027C48EB0608C01B06FB02CC0BFB03CC3F
:1003800071EB0C01C1E70B46024641464846BDE809
:10039000F08B13B54FF000004FF00001AFF3008079
:1003A000BDE81C4070472DE9F041074615460E4652
:1003B000102000F0C7F804000AD06760C4E90265A5
:1003C00000F0BCF80168216004600020BDE8F08105
:1003D0000120FBE7032A40F2308010F0030C00F00C
:1003E000158011F8013BBCF1020F624498BF11F86F
:1003F00001CB00F8013B38BF11F8013BA2F1040228
:1004000098BF00F801CB38BF00F8013B11F003039F
:1004100000F02580083AC0F0088051F8043B083A03
:1004200051F804CBA0E80810F5E7121D5CBF51F8A5
:10043000043B40F8043BAFF30080D20724BF11F81F
:10044000013B11F801CB48BF11F8012B24BF00F884
:10045000013B00F801CB48BF00F8012B704710B5F5
:10046000203AC0F00B80B1E81850203AA0E81850AC
:10047000B1E81850A0E81850BFF4F5AF5FEA027C6D
:1004800024BFB1E81850A0E8185044BF18C918C0DC
:10049000BDE810405FEA827C24BF51F8043B40F87D
:1004A000043B08BF7047D20728BF31F8023B48BF62
:1004B00011F8012B28BF20F8023B48BF00F8012BA0
:1004C00070474FF0000200B5134694469646203917
:1004D00022BFA0E80C50A0E80C50B1F12001BFF4FD
:1004E000F7AF090728BFA0E80C5048BF0CC05DF863
:1004F00004EB890028BF40F8042B08BF704748BFB1
:1005000020F8022B11F0804F18BF00F8012B704724
:10051000704770477047000070B5064C7C44064D2C
:100520007D4403E0206820448047241DAC42F9D17B
:1005300070BD0000C49D0000D49D000000487047BD
:100540005417002070B5064600F08AF8056806F1D9
:100550000B0020F00704B4429CBF002070BD2B4666
:100560006A68BAB11068A04210D304F10801884249
:100570003CBF5068586007D351681019416011683A
:10058000091B016058601460101D70BD134652684D
:10059000002AE7D12146284600F06EF80028DED177
:1005A00070BD70B50446051F00F05AF80068002CB5
:1005B00014BF446870BD002C18BFAC423CBF20463D
:1005C0006468F8D301680A18AA4218BF456003D1CD
:1005D0002A6805461144016028684119A1421CBFE0
:1005E0006C6070BD6168696021680844286070BDF6
:1005F00010B500F039F8006810BD10B5044600F0E1
:1006000033F8046010BD2DE9F0410646FFF796FF70
:100610008046454613E016B1E068B0420ED120682E
:100620002860D4E90101D8F8007088472046FFF718
:10063000B8FFD8F80000B842EBD100E025462C689E
:10064000002CE8D1BDE8F08110B500F065F8BDE8F8
:10065000104000F05BB80000004870471C170020F5
:100660000048704724170020004870471C170020DE
:10067000704770477047704738B504460A460020F7
:100680006946AFF30080002808BF38BD02460099D4
:10069000204600F084F8012038BD012000F0BBB8EE
:1006A000F8B5AFF30080054600200C46102000BFCF
:1006B0000646A819A0420DD9324669460020AFF37C
:1006C0000080070008BF00F0A6F80098A04218BFFD
:1006D0000546C419FFF7C4FF05600746F01D20F06A
:1006E00007004619284600F00AF8B44208BFF8BDD2
:1006F000A21B31463868BDE8F84000F050B8002130
:100700000160C0E90110704710207047002801D037
:1007100000F01AB87047000010B5002102A000F0E8
:1007200061F8012010BD00005349475056464E3A2B
:100730002050757265207669727475616C20666EE2
:100740002063616C6C65640001491820ABBEFEE754
:10075000260002007546FFF77FFFAE46050069469A
:10076000534620F00700854618B020B5FFF792FDEC
:10077000BDE820404FF000064FF000074FF00008A2
:100780004FF0000B21F00701AC46ACE8C009ACE823
:10079000C009ACE8C009ACE8C0098D467047034603
:1007A00040688C46002818BF88423CBF034640681A
:1007B000F8D318681844884207D00CF1030020F0E1
:1007C0000700001D411A521A0146081D0A60FFF772
:1007D000E8BE10B50446AFF300802046BDE81040E7
:1007E000FFF744BD70B505460C460A2000E06D1CBD
:1007F00000F018F835B128780028F8D102E0641C20
:1008000000F010F814B120780028F8D1BDE870404D
:100810000A2000F007B810B500F00CF8BDE8104051
:10082000FFF774BF08B569468DF800000320ABBE22
:1008300008BD704710B5012805D0002103A0FFF7BF
:10084000D1FF012010BD09A1F8E70000534947522C
:10085000544D454D3A204F7574206F662068656190
:1008600070206D656D6F7279000000003A20486558
:100870006170206D656D6F727920636F7272757033
:10088000746564009FED221A9FED222A20EE010A72
:10089000B5EE001A30EE010ABDEEC01A11EE100AD4
:1008A000B5EE400AF1EE10FAB8BF013801EE100AB9
:1008B000B8EEC11A30EE410A20EE020ABDEEC01AAF
:1008C0009FED152A11EE100A002130EE021AB1EB4D
:1008D000502F49F6C0211CBF0020B0EE410AC0F6DF
:1008E000000101EE100A01EB8001B8EE411A30EE72
:1008F000410A91ED001A91ED012AB7EE003A33EE6C
:10090000403A23EE011A20EE020A31EE000A704747
:1009100083F9223E00000044000000C401804280B0
:10092000436070472DE9F04F85B047880B889F42A0
:1009300040F08480B0F800B013889B4540F07E8082
:10094000B1F802E053889E4578D1D0F80480506811
:1009500049680190BC0827F0030008EB800604FBFF
:100960000EF09FED390A07F0030C029101EB001025
:100970004FEA8E0200210090CDE903E70198DDF8EF
:1009800008A0009B00EB8109B0EE401A5746404694
:1009900074B3554627464046B0EE401A95ED002AFE
:1009A00090ED003A154490ED014A23EE022A95EDB0
:1009B000003A154490ED025A31EE021A24EE032A51
:1009C00095ED003A154490ED036A31EE021A25EEDA
:1009D000032A95ED003A31EE021A26EE032A31EE93
:1009E000021A013F00F110001544D7D11F463046CE
:1009F000BCF1000F0CD0654690ED002A97ED003A4F
:100A0000043022EE032A31EE021A013D1744F3D1DD
:100A1000A9EC011ABEF1010E0AF1040A03F1040364
:100A2000B2D1DDF80CE0049F714408EB8708BBF1FC
:100A3000010B06EB8706A1D1002000E0FD2040B2AB
:100A400005B0BDE8F08F00BF000000009FED201A48
:100A50009FED202A20EE010ABDEEC01A11EE100A09
:100A6000B5EE400AF1EE10FAB8BF013801EE100AF7
:100A7000B8EEC11A30EE410A20EE020ABDEEC01AED
:100A80009FED152A11EE100A002130EE021AB1EB8B
:100A9000502F49F6C0211CBF0020B0EE410AC0F61D
:100AA000000101EE100A01EB8001B8EE411A30EEB0
:100AB000410A91ED001A91ED012AB7EE003A33EEAA
:100AC000403A23EE011A20EE020A31EE000A704786
:100AD00083F9223E00000044000000C470B52DEDF3
:100AE000028B06460D46144600EE105AB8EE400A38
:100AF000DFED120A80EE801AB0EE418A93ED023AE1
:100B0000F0EE432A93ED013AB0EE432A93ED003A1A
:100B1000F0EE431A94ED023AB0EE431A94ED013A26
:100B2000F0EE430A94ED003AB0EE430AB0EE483AD4
:100B3000304604F04FF8BDEC028B70BD00007A44E3
:100B400010B501221021024801F0EAFD10BD00009D
:100B50000000024010B500221021024801F0E0FD23
:100B600010BD00000000024010B5012211460248ED
:100B700001F0D6FD10BD00000004024010B50022B7
:100B80000121024801F0CCFD10BD0000000402402C
:100B900000BFFEE710B5024800F0FBFC10BD0000EE
:100BA0007801002010B5024800F0F3FC10BD0000F1
:100BB0007801002010B5024800F0EBFC10BD0000E9
:100BC000DC01002010B5024800F0E3FC10BD00007D
:100BD000DC01002010B50020424908707BE041484C
:100BE000007800EB800101EBC0003F490844007928
:100BF000C00900286AD03B48007800EB800101EB77
:100C0000C00039490844D0F8090000285ED03749AF
:100C1000344B1B7851F823003249097801EB8103EA
:100C200003EBC101304B1944D1F809200121904751
:100C3000F0B32F482B49097810F821002949097889
:100C400001EB810202EBC101274A50542848254993
:100C5000097800EB810040782249097801EB810294
:100C600002EBC101204A1144487021481D4909780E
:100C700000EB810080781B49097801EB810202EBCF
:100C8000C101194A1144887055201649097801EBB1
:100C9000810202EBC101144A1144C8701148007866
:100CA00000EB800101EBC00011460844007900E030
:100CB0000CE020F080000B49097801EB810202EB87
:100CC000C101094A1144087105F044FB0548007848
:100CD000401C04490870034800780428FFF67FAFE1
:100CE00010BD000062010020DC15002094000020EF
:100CF000489A000810B5024801F07CF810BD0000C9
:100D0000C002002010B5024801F074F810BD0000C8
:100D10006005002010B5024801F06CF810BD00001D
:100D20002003002010B5024801F064F810BD000057
:100D3000C00500200146087810381823B0FBF3F2F4
:100D40000848805CC865032A05D908686FF3090064
:100D5000001D886503E008686FF309008865886DE9
:100D6000704700000C9A0008014600208A6A8B69CF
:100D7000CBB932B1012A0DD0022A03D0032A10D1F7
:100D80000EE000BFCB6A03F08073B3F1807F00D127
:100D9000012007E0CB6AB3F1C07F00D1012001E060
:100DA00000E000BF34E08B69B3F5005F1AD132B1C7
:100DB000012A07D0022A03D0032A11D10AE000BF7A
:100DC00001200EE0CB6A03F08073B3F1807F00D185
:100DD000012006E0CB6AB3F1C07F00D1012000E022
:100DE00000BF15E032B1012A05D0022A04D0032A3F
:100DF0000CD103E000BF00BF012008E0CB6A03F084
:100E00008073B3F1807F00D1012000E000BF00BFFC
:100E1000704730B50468246824F4802405682C6089
:100E2000046863608468402C04D10468A26004688C
:100E3000E16003E00468A1600468E26030BD7047CF
:100E400010B5012001F064FB10BD10B5102001F0B9
:100E50005FFB10BD10B5202001F05AFB10BD72B62B
:100E600000BFFEE710B5002201B909E0012901D158
:100E70000A0205E0022901D10A0201E04FF44072A2
:100E80000E4B1B6823F440730C4C236023461B68F5
:100E90001343236023461B6823F078032360234613
:100EA0001B68022444EAC0042343044C2360234605
:100EB0001B6843F48033236010BD0000103C0240E7
:100EC0001C48006800F40070B0B11A48006820F4B3
:100ED00000701849086000BF0846006840F40060D0
:100EE00008600846006820F40060086000BF0846FB
:100EF000006840F4007008600E48006800F48060EC
:100F0000B0B10C48006820F480600A49086000BF56
:100F10000846006840F4805008600846006820F4E5
:100F20008050086000BF0846006840F48060086098
:100F300070470000003C02400A4A126822F44072E6
:100F4000084B1A601A46126842F004021A601A46E8
:100F500012684FF4803343EA00231A43014B1A60AE
:100F600070470000103C0240074A126822F44072A9
:100F7000054B1A601A4612681A601A46126842F047
:100F800001021A6001707047103C024010B50A4916
:100F9000096821F44071084C21602146096841F438
:100FA000407121602146096841F001012160026021
:100FB000BFF36F8F436010BD103C0240084A1268B7
:100FC00022F44072064B1A601A46126842F480728C
:100FD0001A601A46126842F001021A6001807047D6
:100FE000103C0240084A126822F44072064B1A6014
:100FF0001A46126842F400721A601A46126842F0E9
:1010000001021A6001607047103C024023480068EA
:1010100000F0100040B12248C06940F010002049A3
:10102000C86110201D4908601C48006800F02000BD
:1010300040B11B48C06940F008001949C861202030
:10104000164908601548006800F0400040B1144897
:10105000C06940F004001249C86140200F4908608F
:101060000E48006800F0800040B10D48C06940F0B3
:1010700002000B49C86180200849086007480068E1
:1010800000F0020040B10648C06940F02000044969
:10109000C861022001490860704700000C3C024012
:1010A0004000002070B50446002500201449C861A6
:1010B00001F03CFB054609E0601C38B124B101F0A9
:1010C00035FB401BA04201D9032070BD0D480068CC
:1010D00000F480300028EFD10A48006800F00100D9
:1010E00010B10120074908600648006800F0F200CE
:1010F00018B1FFF78BFF0120E7E70020E5E70000CC
:10110000400000200C3C024010B5024692F820300E
:10111000012B01D0022B06D11068406908431468E6
:101120006061002010BD506A40F4802050620120B0
:10113000F8E7F0B504460D461E4694F82070206886
:101140008368A86800B900E000BF012F01D0022F1A
:101150007DD103F0806030B903F0006018B903F06E
:10116000805000287ED0C3F30161012088403060A8
:10117000A86860B9B5F800C0E86840EA4C5C20682F
:1011800000F5C07000EB0110C0F800C00FE0D5E919
:1011900001C040EACC00D5F80CC040EA0C00D4F8FD
:1011A00000C00CF5C07C0CEB011CCCF80000D5F89D
:1011B00010C0206800F5C07000EB0110C0F804C03A
:1011C000287D01280ED1206800F5C07000EB0110C9
:1011D000406840F4807C206800F5C07000EB01108E
:1011E000C0F804C0D079000692F806C040EA0C406E
:1011F00092F805C040EA0C2092F804C040EA0C00C6
:10120000D4F800C00CF5C07C0CEB011CCCF80C0031
:10121000D078000692F802C040EA0C4092F801C073
:1012200040EA0C2092F800C040EA0C00D4F800C05C
:101230000CF5C07C0CEB011CCCF80800206800F514
:10124000C07000EB0110006840F0010C01E00FE0FD
:1012500008E0206800F5C07000EB0110C0F800C085
:101260000020F0BD606A40F4001060620120F8E7E1
:10127000606A40F4802060620120F2E7F0B5044625
:101280000A4694F82050012D01D0022D7ED142490A
:1012900001F50071086840F001000860086820F45A
:1012A0007C5008600868566A40EA06200860107D95
:1012B00000F01F06012000FA06F3C8699843C861D0
:1012C000A1F50071D069C8B9D1F80C029843C1F8F2
:1012D0000C02908880B2968940EA064601F51070AB
:1012E000576940F83760108880B2168940EA064690
:1012F00001F51070576900EBC7004660D0690128FE
:1013000019D1D1F80C021843C1F80C02908880B2B0
:10131000168840EA064601F51070576940F83760B4
:10132000908980B2168940EA064601F51070576927
:1013300000EBC7004660906928B9D1F804029843D1
:10134000C1F8040204E0D1F804021843C1F8040211
:10135000106928B9D1F814029843C1F8140204E0C6
:10136000D1F814021843C1F81402106A012804D1FC
:10137000D1F81C021843C1F81C02D1F8000220F079
:101380000100C1F800020020F0BDFFE7606A40F4F0
:10139000802060620120F7E70064004010B502463B
:1013A00092F82030012B01D0022B06D11068406941
:1013B000884314686061002010BD506A40F48020AA
:1013C00050620120F8E7704770B5044694F8205049
:1013D000012D01D0022D7DD151B92068C06800F0E7
:1013E000030080B9606A40F400106062012070BDA3
:1013F0002068006900F0030028B9606A40F400101A
:1014000060620120F3E7206800F5D87000EB01105E
:10141000006800F004009060906840B9206800F512
:10142000D87000EB01100068400D106007E02068E4
:1014300000F5D87000EB01100068C008506020680B
:1014400000F5D87000EB0110006800F00200D060D9
:10145000206800F5D87000EB0110406800F00F0024
:10146000082802D30820106108E0206800F5D87031
:1014700000EB0110406800F00F001061206800F5DB
:10148000D87000EB0110406800F47F40000A9061C2
:10149000206800F5D87000EB01104068000C506126
:1014A000206800F5D87000EB011080681870206883
:1014B00000F5D87000EB0110806800F47F40000A4E
:1014C0005870206800F5D87000EB0110806800F4B7
:1014D0007F0000E03CE0000C9870206800F5D870B8
:1014E00000EB01108068000ED870206800F5D870FD
:1014F00000EB0110C0681871206800F5D87000EB8F
:101500000110C06800F47F40000A5871206800F59F
:10151000D87000EB0110C06800F47F00000C9871D7
:10152000206800F5D87000EB0110C068000ED8717B
:1015300031B92068C06840F020002668F06005E0FE
:101540002068006940F020002668306100204EE7E6
:10155000606A40F480206062012048E70146002074
:1015600091F82020012A01D0022A11D10B689B6832
:1015700003F0806303B1401C0B689B6803F00063B9
:1015800003B1401C0B689B6803F0805303B1401CFF
:1015900070472DE9F05F0446002520684669206801
:1015A000D0F80490206887682068D0F80CA02068E4
:1015B000D0F810B02068D0F8188006F0010000289C
:1015C00055D007F00100C0B101202168886007F004
:1015D000020018B12046A16A88470EE007F0040017
:1015E00010B145F4006508E007F0080010B145F4BB
:1015F000805502E02046616B884707F48070C8B1CF
:101600004FF480702168886007F4007018B120469C
:10161000E16A88470EE007F4806010B145F4005598
:1016200008E007F4006010B145F4804502E0204670
:10163000A16B884707F48030C8B14FF4803021682F
:10164000886007F4003018B12046216B88470EE00F
:1016500007F4802010B145F4004508E007F40020AD
:1016600010B145F4803502E02046E16B884706F072
:10167000080038B10AF0100020B145F400751020C0
:101680002168C86006F0040040B10AF0080028B1E3
:1016900008202168C8602046616C884706F0020077
:1016A00038B12068C06800F0030010B12046216CFA
:1016B000884706F0400038B10BF0100020B145F427
:1016C000806510202168086106F0200040B10BF011
:1016D000080028B10820216808612046E16C88478D
:1016E00006F0100038B12068006900F0030010B166
:1016F0002046A16C884706F4003040B109F0100084
:1017000028B11020216848602046216D884706F4E2
:10171000803040B109F0080028B1082021684860F5
:101720002046616D884706F4004088B309F0040044
:1017300078B306F4807020B108F0010008B145F0DC
:10174000010506F4007020B108F0020008B145F070
:10175000020506F4806020B108F0040008B145F0ED
:10176000040506F40060A0B108F0700088B108F02C
:101770007000402817D006DC10280BD020280CD091
:10178000302819D10CE0502810D0602814D110E076
:101790001DE019E045F008050FE045F010050CE0EC
:1017A00045F0200509E045F0400506E045F08005DC
:1017B00003E045F4807500E000BF00BF2068806949
:1017C00020F07000216888610420216848602DB1F4
:1017D000606A284360622046A16D8847BDE8F09F9B
:1017E00070B504460CB9012070BD94F820000028A3
:1017F00020D168482064684860646848A0646848EC
:10180000E0646848A0626848E0626848206368480D
:1018100060636848A0636848E0636848206568487A
:1018200060656848A065E06D08B96748E0652046D6
:10183000E16D88472068006840F001002168086079
:1018400000F074FF05460DE000F070FF401B0A2811
:1018500008D9606A40F400306062052084F82000F6
:101860000120C1E72068406800F001000028EBD0AB
:101870002068006820F002002168086000F056FF30
:1018800005460DE000F052FF401B0A2808D9606AA7
:1018900040F400306062052084F820000120A3E7B6
:1018A0002068406800F002000028EBD1207E01286B
:1018B00006D12068006840F080002168086005E0DB
:1018C0002068006820F0800021680860607E0128A0
:1018D00006D12068006840F040002168086005E0FB
:1018E0002068006820F0400021680860A07E012880
:1018F00006D12068006840F020002168086005E0FB
:101900002068006820F0200021680860E07E01283F
:1019100006D12068006820F010002168086005E00A
:101920002068006840F0100021680860207F0128CE
:1019300006D12068006840F008002168086005E0D2
:101940002068006820F0080021680860607F012896
:1019500006D12068006840F004002168086005E0B6
:101960002068006820F0040021680860D4E90201C2
:10197000084321690843616908436168491E0843B7
:101980002168C86100206062012084F820000020E6
:101990002AE700003D1C00083B1C0008411C000811
:1019A0003F1C0008A51C0008A91C0008AD1C00086D
:1019B000A31C0008A71C0008AB1C0008431C00085F
:1019C000AF1C0008C7130008CD19000810B586B079
:1019D0000446142101A8FEF774FD65492068884279
:1019E00065D164480068401C624908600846006888
:1019F00001280FD100BF002000905F48006840F030
:101A000000705D4908600846006800F000700090B2
:101A100000BF00BF00BF002000905748103800688A
:101A200040F002005449103908600846006800F090
:101A30000200009000BF00BF00BF002000900846D9
:101A4000006840F0080008600846006800F00800E0
:101A5000009000BF00BF8815019002200290002076
:101A60000390032004900920059001A9434800F049
:101A70005DFD02200190029000200390032004905D
:101A80000920059001A93E4800F050FD00221146B2
:101A9000132000F0F7FE132000F0E0FE00221146B4
:101AA000142000F0EFFE142000F0D8FE5DE0354970
:101AB0002068884259D100BF002000902E4800685D
:101AC00040F080602C4908600846006800F08060A3
:101AD000009000BF00BF27480068401C25490860EF
:101AE0000846006801280FD100BF0020009022485E
:101AF000006840F00070204908600846006800F067
:101B00000070009000BF00BF00BF002000901A4886
:101B10001038006840F00200174910390860084684
:101B2000006800F00200009000BF00BF4FF4825038
:101B300001900220029000200390032004900920CD
:101B4000059001A90D4800F0F1FC002211463F204C
:101B500000F098FE3F2000F081FE00221146402058
:101B600000F090FE402000F079FE06B010BD0000AD
:101B700000640040000000204038024000040240A1
:101B8000000C02400068004010B5034600242AB94A
:101B9000586A40F480005862012010BD93F820007C
:101BA000012830D10F2927D2DFE801F0080A0C0EF6
:101BB00010121416181A1C1E202224009A6221E00A
:101BC000DA621FE01A631DE05A631BE09A6319E0B2
:101BD000DA6317E01A6415E05A6413E09A6411E0BE
:101BE000DA640FE01A650DE05A650BE09A6509E0CA
:101BF000DA6507E01A6605E0586A40F4800058622A
:101C0000012400BF17E093F8200078B90D2902D015
:101C10000E2904D101E0DA6507E01A6605E0586A8A
:101C200040F480005862012400BF04E0586A40F488
:101C30008000586201242046AFE770477047704724
:101C40007047704770B5044694F82000012822D1EF
:101C5000022084F820002068006820F0010021683C
:101C6000086000F063FD05460DE000F05FFD401BDD
:101C70000A2808D9606A40F400306062052084F8C0
:101C80002000012070BD2068406800F0010000289D
:101C9000EBD16062F6E7606A40F4002060620120E8
:101CA000F0E770477047704770477047704770475C
:101CB00070B50446A56D00F039FD064694F8350070
:101CC000022808D08020606500BF002084F834001E
:101CD00000BF012070BD2068006820F01600216858
:101CE00008602068406920F0800021684861206C0D
:101CF00008B9A06C28B12068006820F008002168AD
:101D000008602068006820F001002168086010E089
:101D100000F00CFD801B05280BD9202060650320F6
:101D200084F8350000BF002084F8340000BF032091
:101D3000D0E72068006800F001000028E8D194F89E
:101D40005C103F208840A860012084F8350000BF67
:101D5000002084F8340000BF00BFBBE7014691F8C3
:101D60003500022803D080204865012070470520F7
:101D700081F835000868006820F001000A681060EA
:101D80000020F3E770B504460CB9012070BD94F84B
:101D90003500022800D1F9E72068006820F0010032
:101DA0002168086000202168086021684860216877
:101DB00088602168C8602168086121202168486125
:101DC0002046FEF7B7FF05460020E063206460640C
:101DD000A064E064206594F85C103F208840A8600F
:101DE0000020606584F8350000BF84F8340000BF2F
:101DF00000BFCBE7F8B50446002000908C4800688F
:101E00004FF41651B0FBF1F7A56D2E6894F85C10F5
:101E100008208840304098B12068006800F0040035
:101E200070B12068006820F004002168086094F810
:101E30005C1008208840A860606D40F0010060657B
:101E400094F85C1001208840304068B120684069F7
:101E500000F0800040B194F85C1001208840A86038
:101E6000606D40F00200606594F85C1004208840CA
:101E7000304068B12068006800F0020040B194F87A
:101E80005C1004208840A860606D40F0040060652C
:101E900094F85C1010208840304078B320680068C7
:101EA00000F0080050B394F85C1010208840A8603F
:101EB0002068006800F4802080B12068006800F489
:101EC000002028B9206CC8B12046216C884715E055
:101ED000A06C98B12046A16C88470FE0206800688C
:101EE00000F4807028B92068006820F0080021689C
:101EF0000860206C10B12046216C884794F85C1073
:101F0000202088403040002865D02068006800F01C
:101F1000100000285FD094F85C1020208840A86052
:101F200094F83500052828D12068006820F01600B4
:101F3000216808602068406920F0800021684861BD
:101F4000206C08B9A06C28B12068006820F0080057
:101F50002168086094F85C103F208840A860012048
:101F600084F8350000BF002084F8340000BF206DE5
:101F700010B12046216D8847F8BD2068006800F444
:101F8000802080B12068006800F4002028B9606CCF
:101F900010B12046616C88471DE0E06BD8B1204647
:101FA000E16B884717E02068006800F4807068B92A
:101FB0002068006820F0100021680860012084F883
:101FC000350000BF002084F8340000BFE06B10B182
:101FD0002046E16B8847606D38B3606D00F001000A
:101FE000F0B1052084F835002068006820F0010079
:101FF0002168086000BF0098401C0090B84200D9DA
:1020000005E02068006800F001000028F3D100BF5F
:10201000012084F8350000BF002084F8340000BFA0
:10202000E06C10B12046E16C884700BFA4E70000D7
:10203000040000202DE9F0410446002500F076FB65
:10204000074614B90120BDE8F081606A00B100BF05
:10205000022084F8350000BF002084F8340000BF5F
:102060002068006820F00100216808600AE000F0A4
:102070005DFBC01B052805D920206065032084F87E
:102080003500E0E72068006800F001000028EED18C
:102090002068056821480540D4E901010843E1684A
:1020A00008432169084361690843A1690843E1695C
:1020B0000843216A08430543606A042803D1D4E930
:1020C0000B0108430543206805602068456925F039
:1020D0000705606A0543606A04280DD1A06A0543BC
:1020E000E06A48B12046FEF73FFE28B14020606517
:1020F000012084F83500A6E7206845612046FEF7F8
:1021000019FE064694F85C103F208840B06000201D
:102110006065012084F83500002094E73F8010F0CE
:102120002DE9F04704460D4616461F464FF00008BD
:10213000D4F8589000BF94F83400012802D102204E
:10214000BDE8F087012084F8340000BF94F8350022
:10215000012825D1022084F83500002060653B4627
:10216000324629462046FEF754FE94F85C103F2084
:102170008840C9F808002068006840F0160021680F
:102180000860206C28B12068006840F008002168D1
:1021900008602068006840F001002168086006E0DF
:1021A00000BF002084F8340000BF4FF00208404612
:1021B000C6E700002DE9F04104460F46002600BFA7
:1021C0002548007E012802D10220BDE8F0810120CF
:1021D0002149087600BF4CF25030FEF763FF0546F8
:1021E000002D31D1401E3860206801280FD1207C9D
:1021F0006168FEF7A1FE4CF25030FEF753FF054632
:102200001648006820F00400144908601AE0A66827
:1022100012E0217C3046FEF725FE4CF25030FEF7EE
:1022200041FF05460D48006820F07A000B49086020
:102230000DB13E6005E0761CD4E902100844B042BE
:10224000E7D800BFFEF73CFE00BF00200249087639
:1022500000BF2846B9E7000040000020103C0240C3
:102260000348006840F000400149086000207047C2
:10227000103C02402DE9F0410646884614461D46B2
:1022800000BF1E48007E012802D10220BDE8F08177
:1022900001201A49087600BF4CF25030FEF702FFC9
:1022A00007461FBB26B9E1B24046FEF75DFE12E0CD
:1022B000012E04D1A1B24046FEF780FE0BE0022EB3
:1022C00004D121464046FEF78DFE04E022462B460F
:1022D0004046FEF75BFE4CF25030FEF7E3FE074649
:1022E0000748006820F001000549086000BF002091
:1022F0000249087600BF3846C8E7000040000020C9
:10230000103C024000200949096801F0004159B120
:102310000749064A0C3A11600649116003490968E9
:1023200001F0004101B1012070470000103C024063
:1023300023016745AB89EFCDF0B50C46002500229F
:102340000023002194E0012606FA01F504EA0502C3
:10235000AA427DD1484E8F0856F827308E07370F96
:102360000F26BE403340454EB04201D1002623E047
:10237000434EB04201D101261EE0424EB04201D18F
:10238000022619E0404EB04201D1032614E03F4E30
:10239000B04201D104260FE03D4EB04201D10526E6
:1023A0000AE03C4EB04201D1062605E03A4EB0426A
:1023B00001D1072600E008268F073F0FBE409E424E
:1023C00024D1364E36689643344F3E603E1D366803
:1023D00096433F1D3E60314E0C36366896432F4F74
:1023E0000C373E603E1F366896433F1F3E608E07A7
:1023F000370F0F2606FA07F31F4E8F0856F827608F
:102400009E431D4F4FEA910C47F82C6006684FEA37
:10241000410C032707FA0CF7BE430660CF0800F112
:10242000200656F827604F074FEAD76C0F2707FAA8
:102430000CF7BE434FEAD10C00F1200747F82C609F
:10244000C6684FEA410C032707FA0CF7BE4300E0C9
:102450000DE0C660466801278F40BE43466086682F
:102460004FEA410C032707FA0CF7BE438660491C6C
:102470001029FFF468AFF0BD0838014000000240A9
:102480000004024000080240000C0240001002401C
:102490000014024000180240001C0240003C0140B1
:1024A00010B5044616480078042800D110BD102C41
:1024B00011D11448007840F0010012490870124808
:1024C000007840F00100104908700D480078A0B96C
:1024D00003F086FF11E0202C0BD10C48007840F06F
:1024E00001000A4908700648007830B903F078FF07
:1024F00003E0012C01D104F0C5F800BFD6E70000CD
:102500003401002088000020890000208A0000207B
:1025100010B5044604480068204020B10248046019
:102520002046FFF7BDFF10BD143C0140F8B5024640
:102530000B460025002400200021D6E0012606FAE3
:1025400001F51E6806EA0504AC4274D11E7906F056
:102550000306012E04D01E7906F00306022E13D1C5
:1025600090684F000326BE40B0434F00DE68BE4077
:1025700030439060506801268E40B0431E79C6F308
:1025800000168E40304350601E7906F00306032E7D
:1025900009D0D0684F000326BE40B0434F009E686C
:1025A000BE403043D0601E7906F00306022E13D1E0
:1025B000CF0802F1200656F827004E07F70E0F2627
:1025C000BE40B0434F07FF0E1E69BE403043CF08E8
:1025D00002F1200646F8270010684F000326BE408F
:1025E000B0431E7906F003064F00BE403043106032
:1025F0005E6806F44036002E76D000BF00260096B6
:102600003C4E366846F480463A4F3E603E46366859
:1026100006F48046009600BF00BF374E8F0856F87C
:1026200027008E07370F0F26BE40B043334EB2420D
:1026300002D1002624E057E0314EB24201D10126FA
:102640001EE0304EB24201D1022619E02E4EB242B7
:1026500001D1032614E02D4EB24201D104260FE031
:102660002B4EB24201D105260AE02A4EB24201D1D8
:10267000062605E0284EB24201D1072600E00826D2
:102680008F073F0FBE4030431B4E8F0846F8270090
:10269000224E3068A0435E6806F4801606B12043DF
:1026A0001E4E3060361D3068A0435E6806F400168A
:1026B00006B12043194E361D3060184E361F306863
:1026C000A0435E6806F4003606B12043134E361F61
:1026D0003060361F3068A0435E6806F4803606B16D
:1026E00020430E4E083E3060491C1029FFF426AFEF
:1026F000F8BD0000443802400838014000000240A4
:102700000004024000080240000C02400010024099
:102710000014024000180240001C0240083C014026
:102720000AB1816101E00B048361704701480068D0
:1027300070470000600000200348006803490978E2
:1027400008440149086070476000002068000020CC
:1027500010B50D48006840F400700B490860084649
:10276000006840F4806008600846006840F48070AB
:102770000860032000F0C4F80F2000F007F800F014
:102780002BF8002010BD0000003C024070B504464C
:102790000E4800784FF47A71B1FBF0F00C490968EB
:1027A000B1FBF0F5284600F0D6FF08B1012070BD5E
:1027B000102C07D200222146501E00F063F8054875
:1027C000046001E00120F2E70020F0E7680000204B
:1027D000040000206400002008B500BF0020009025
:1027E0001248006840F480401049086008460068BC
:1027F00000F48040009000BF00BF00BF00200090A8
:10280000081F006840F08050091F086008460068F3
:1028100000F08050009000BF00BF0022114605204C
:1028200000F030F8052000F019F808BD44380240E7
:1028300010B50146084600280BDB00F01F030122FB
:102840009A40054B440943F82420BFF34F8FBFF350
:102850006F8F00BF10BD000080E100E00146084618
:1028600000280DDB00BF00BF00F01F0301229A40CB
:1028700043099B0003F1E023C3F8002100BF00BF20
:1028800000BF70472DE9F05F80460D4616460027D1
:1028900006F072F8074639462A46334601F007002B
:1028A000C0F1070ABAF1040F02D94FF0040A01E09F
:1028B000C0F1070AD14600F1040ABAF1070F02D2AB
:1028C0004FF0000A01E0A0F1030AD4464FF0010ADC
:1028D0000AFA09FAAAF1010A0AEA020A0AFA0CFA41
:1028E0004FF0010B0BFA0CFBABF1010B0BEA030BE6
:1028F0004AEA0B042146404606F046F8BDE8F09F40
:1029000000BF00F00702064B19684FF6FF0319409D
:10291000044B0B4343EA0221014B196000BF70478F
:102920000CED00E00000FA0570B504460D460CB948
:10293000012070BD5848006800F00700A84209D285
:1029400055490D700846006800F00700A84201D004
:102950000120EEE7207800F0020002281DD1207847
:1029600000F00400042805D14C48006840F4E05011
:102970004A490860207800F00800082805D1474837
:10298000006840F46040454908604448006820F011
:10299000F000A168084341490860207800F0010078
:1029A000A8B36068012807D13C4808380068C0F324
:1029B0004040B8B90120BCE76068022802D06068D6
:1029C000032807D1354808380068C0F3406048B98B
:1029D0000120AEE7314808380068C0F3400008B96C
:1029E0000120A6E72D48006820F003006168084335
:1029F0002A490860FFF79AFE064609E0FFF796FEAF
:102A0000801B41F28831884202D9032091E707E018
:102A10002248006800F00C006168B0EB810FEDD136
:102A20001D48006800F00700A84209D91A490D7036
:102A30000846006800F00700A84201D0012078E7AE
:102A4000207800F00400042807D11448006820F41E
:102A5000E050E168084311490860207800F0080060
:102A6000082808D10D48006820F46040216940EA38
:102A7000C1000A49086000F03FF808490968C1F33D
:102A80000311074A515CC8400649086006480068BF
:102A9000FFF77CFE00204CE7003C02400838024073
:102AA000A09900080400002064000020014800688C
:102AB000704700000400002000B5FFF7F7FF04494D
:102AC0000968C1F38221034A515CC84000BD00007F
:102AD00008380240B099000800B5FFF7E7FF044945
:102AE0000968C1F34231034A515CC84000BD00008F
:102AF00008380240B09900082DE9F047002400256D
:102B00000026A1462548006800F00C0020B10428EA
:102B100005D008283AD105E0DFF8849039E0DFF8E5
:102B2000849036E01D48001F006800F03F041B48F9
:102B3000001F006800F4800078B11A481749091F87
:102B40000968C1F38811A0FB0170014622460023E9
:102B50003846FDF7B1FB05460EE011480F49091F45
:102B60000968C1F38811A0FB0170014622460023C9
:102B70003846FDF7A1FB05460848001F0068C0F372
:102B80000140401C4600B5FBF6F902E0DFF810906A
:102B900000BF00BF4846BDE8F0870000083802408B
:102BA0000024F400001BB700F8B504460CB901205E
:102BB000F8BD207800F00100002874D0F9480068C2
:102BC00000F00C0004280DD0F648006800F00C005E
:102BD000082813D1F348001F006800F48000B0F506
:102BE000800F0BD1EF4808380068C0F34040002840
:102BF00059D06068002856D10120D9E700BF60682D
:102C0000B0F5803F08D1E7480838006840F48030CC
:102C1000E449083908601EE06068B0F5A02F0DD1C6
:102C2000E0480838006840F48020DE490839086030
:102C30000846006840F4803008600CE0D948083845
:102C4000006820F48030D7490839086008460068D9
:102C500020F48020086000BF606890B1FFF766FD37
:102C6000054606E0FFF762FD401B642801D90320FA
:102C70009EE7CC4808380068C0F340400028F1D0F7
:102C800011E0FFF753FD054606E0FFF74FFD401B3F
:102C9000642801D903208BE7C24808380068C0F3D4
:102CA00040400028F1D1207800F0020002285FD1D6
:102CB000BC48006800F00C0058B1BA48006800F049
:102CC0000C0008281CD1B748001F006800F48000E1
:102CD000B0B9B44808380068C0F3400020B1E068DB
:102CE000012801D0012063E7AE480838006820F0D1
:102CF000F800216940EAC100AA490839086037E0B4
:102D0000E06800B30120A8490860FFF70FFD054601
:102D100006E0FFF70BFD401B022801D9032047E71F
:102D2000A04808380068C0F340000028F1D09D4852
:102D30000838006820F0F800216940EAC10099498C
:102D40000839086014E0002097490860FFF7EEFC9E
:102D5000054606E0FFF7EAFC401B022801D90320E4
:102D600026E7904808380068C0F340000028F1D1F9
:102D7000207800F0080008282CD16069A8B1012053
:102D80008A490860FFF7D2FC054606E0FFF7CEFC53
:102D9000401B022801D903200AE782486C300068F2
:102DA000C0F340000028F1D014E000207F49086003
:102DB000FFF7BCFC054606E0FFF7B8FC401B022805
:102DC00001D90320F4E677486C300068C0F3400076
:102DD0000028F1D1207800F00400042870D10027E9
:102DE00070483830006800F0805090B900BF002073
:102DF00000906C483830006840F0805069493831A4
:102E000008600846006800F08050009000BF00BFD6
:102E100001276748006800F48070B0B96448006812
:102E200040F4807062490860FFF780FC054606E0C8
:102E3000FFF77CFC401B022801D90320B8E65C4860
:102E4000006800F480700028F2D000BFA06801285C
:102E500008D154486830006840F001005149683199
:102E600008601DE0A06805280DD14E486830006854
:102E700040F004004B49683108600846006840F0A3
:102E8000010008600CE047486830006820F001004D
:102E90004449683108600846006820F00400086072
:102EA00000BFA068A8B1FFF741FC054609E0FFF7A5
:102EB0003DFC401B41F28831884202D9032077E66D
:102EC00026E0384868300068C0F340000028EED0A3
:102ED00013E0FFF72BFC054608E0FFF727FC401B3B
:102EE00041F28831884201D9032061E62D486830DB
:102EF0000068C0F340000028EFD1012F07D1294816
:102F00003830006820F0805026493831086000BF12
:102F1000A069002845D02348006800F00C0008286C
:102F20005DD0A069022845D100201F490866FFF73F
:102F3000FDFB054606E0FFF7F9FB401B022801D91F
:102F4000032035E6174808380068C0F340600028C1
:102F5000F1D1D4E907010843616A40EA81110122F5
:102F6000A06AC2EB500041EA00412C20005D41EA1A
:102F700000600C49091F086001200B490866FFF733
:102F8000D5FB054606E0FFF7D1FB401B022801D91F
:102F900003200DE6034808380068C0F340600028AD
:102FA000F1D049E00838024000004742800E474215
:102FB00000700040002021490866FFF7B7FB054676
:102FC00006E0FFF7B3FB401B022801D90320EFE521
:102FD0001B480068C0F340600028F2D12CE0A069D3
:102FE000012800D1E4E51648001D0668A069012803
:102FF00020D006F48001E06981421BD106F03F0138
:10300000206A814216D147F6C0703040616AB0EB49
:10301000811F0FD106F440310122A06AC2EB50009B
:10302000B1EB004F06D106F070612C20005DB1EBD2
:10303000006F01D00120BBE50020B9E50000474248
:1030400000380240704770B504460025A06C40B1BE
:10305000A06CFEF72DFE20B1606D40F010006065A1
:103060000125E06C40B1E06CFEF722FE20B1606DFE
:1030700040F01000606501252068406820F00300E2
:1030800021684860012084F85100284670BD000086
:1030900010B504462249206888423FD1606D10284F
:1030A00037D1002060651F48007800F0020058B159
:1030B0001C48007840F002001A4908700846007861
:1030C00020F00100087020E01748007800F00200AE
:1030D00058B11548007840F00200134908700846BE
:1030E000007820F0010008700FE01048007800F030
:1030F000020050B10D48007840F002000B49087002
:103100000846007820F00100087000200849087087
:1031100004E0606D00B910BDFDF7A1FE00BFFAE745
:10312000003001408A000020890000208800002033
:1031300034010020F8B50446206846682068856898
:10314000C5F3801048B905F0010030B1C6F3801016
:1031500018B12046216C8847F8BDC5F3400030B156
:10316000C6F3C01018B12046616C8847F4E7C5F378
:10317000401030B9C5F3801018B9C5F300200028FD
:103180007CD0C6F3401000287DD0C5F38010F0B18C
:1031900094F8510003280ED0606D40F00400606583
:1031A00000BF002000902068C06800902068806800
:1031B000009000BF0BE000BF002000902068C068B6
:1031C000009020688068009000BF00BFC4E7C5F38E
:1031D000401088B1606D40F00100606500BF0020C4
:1031E00000902068806800902068006820F040000F
:1031F0002168086000BF00BFC5F3002058B1606DB2
:1032000040F00800606500BF0020009020688068E2
:10321000009000BF00BF606D78B32068406820F068
:10322000E00021684860012084F8510006F00200A7
:10323000022802D006F0010008B32068406820F0A0
:10324000030021684860E06C50B11048E16C0865EB
:10325000E06CFEF783FD18B1606D40F040006065E2
:10326000A06C50B10948A16C0865A06CFEF776FD12
:1032700018B1606D40F04000606503E003E0204657
:10328000216F884768E700BF66E700001D4F000810
:1032900010B504460CB9012010BD606A38B96068E9
:1032A000B0F5827F00D105E00021E16102E000215C
:1032B000216161610021A16294F85100C8B9002028
:1032C00084F850002E48A0652E48E0652E48206600
:1032D0002E4860662E48A0662E48E0662E4820677D
:1032E0002E486067A06F08B92D48A0672046A16FDF
:1032F0008847022084F851002068006820F04000D0
:1033000021680860A08800F48270218901F40441DA
:103310000843A18901F400610843217C01F0020106
:103320000843217D01F001010843218B01F4007164
:103330000843217F01F0380108432021095D01F095
:1033400080010843218D01F4005108432168086081
:103350000421A06901EA104094F8241001F0100142
:103360000843216848602068C06920F40060216833
:10337000C86100206065012084F8510000208BE7BF
:10338000753600080D3500087936000877360008D4
:103390000F35000855370008913000084530000807
:1033A000A533000810B586B00446142101A8FDF726
:1033B00088F84F49206888427ED100BF00200090E5
:1033C0004C48006840F480504A490860084600684C
:1033D00000F48050009000BF00BF00BF00200090AC
:1033E00044481438006840F002004249143908602B
:1033F0000846006800F00200009000BF00BF00BF58
:10340000002000900846006840F00100086008466F
:10341000006800F00100009000BF00BF182001907C
:1034200002200290002003900320049005200590C4
:1034300001A93148FFF77AF880200190022002901C
:1034400000200390032004900520059001A92B483B
:10345000FFF76CF82A482B4908604FF0C0604860BD
:10346000002128488160C1604FF480610161002122
:1034700041618161C1614FF400310162002141620B
:10348000FEF7D8FD08B1FDF7EAFC00BF1D48E06477
:10349000846300BF1A4848301B4908604FF0C06081
:1034A00048604021184881600021C1604FF480616C
:1034B00001610021416100E018E08161C1614FF4C8
:1034C0004031016200214162FEF7B4FD08B1FDF711
:1034D000C6FC00BF0C48A064846300BF00221146F4
:1034E0002320FFF7CFF92320FFF7B8F906B010BD6E
:1034F0000030014044380240000402400000024015
:1035000010640240C0020020200300207047704772
:103510002DE9F04704460E4617461D4694F85180A3
:10352000D4F80490B8F1010F0AD0B9F5827F04D124
:10353000A06810B9B8F1040F02D00220BDE8F087EE
:103540000EB107B10DB90120F8E700BF94F85000A3
:10355000012801D10220F1E7012084F8500000BFCA
:1035600094F85100042802D0052084F8510000206E
:1035700060652663A586E586A763A587E587206441
:10358000606494F85100042806D13548E16C086461
:103590003448E16CC86305E03348E16C08643348A3
:1035A000E16CC8633248E16CC8640020E16C0865D6
:1035B000E38FD4F800C00CF10C01A26BE06CFEF7B5
:1035C000AFFD50B1606D40F01000606500BF00209D
:1035D00084F8500000BF0120B0E72068406840F048
:1035E0000100216848600020A16C0864A16CC863D8
:1035F000A16CC864A16C0865E38ED4F800C00CF11E
:103600000C02216BA06CFEF78BFD50B1606D40F099
:103610001000606500BF002084F8500000BF01204A
:103620008CE72068006800F04000402805D0206842
:10363000006840F040002168086000BF002084F866
:10364000500000BF2068406840F0200021684860BA
:103650002068406840F002002168486000206DE763
:10366000594F0008754F0008674F0008F14F0008D8
:10367000314F00087047704710B504462F49206845
:1036800088425AD12046FFF7DEFC2D4800780128F9
:1036900014D12C48007800F0020078B1FDF750FA00
:1036A0000020274908702748007820F002002549AB
:1036B00008700846007840F0040008702048007840
:1036C000022814D12048007800F0020078B1FDF7FC
:1036D0004BFA00201A4908701B48007820F00200BD
:1036E000194908700846007840F004000870144832
:1036F0000078032814D11548007800F0020078B152
:10370000FDF71EFA00200E4908701048007820F0DE
:1037100002000E4908700846007840F00400087066
:1037200002F05EFE0848007800F0040028B1084866
:10373000006840F001000649086010BD00300140FB
:1037400034010020880000208A0000208900002029
:10375000103C0140704770B504462546681EB0F124
:10376000807F01D301200FE0681E4FF0E021486107
:103770000F214FF0FF3005F007F900204FF0E02156
:10378000886107200861002070BD7047704770474E
:1037900030B502460B4600BF92F83C00012801D12B
:1037A000022030BD012082F83C0000BF022082F8D8
:1037B0003D00106844681068816824F0700418683F
:1037C000044310684460184D1068A8421BD010686C
:1037D000B0F1804F17D0154D1068A84213D0144D8A
:1037E0001068A8420FD0134D1068A8420BD0124D9C
:1037F0001068A84207D0114D1068A84203D0104DA0
:103800001068A84205D121F0800158680143106872
:103810008160012082F83D0000BF002082F83C005A
:1038200000BF00BFBDE700000000014000040040F1
:1038300000080040000C004000040140004001402E
:103840000018004010B504460CB9012010BD94F8D2
:103850003D0060B9002084F83C00204601F076FE6F
:10386000A06C08B91448A0642046A16C88470220C7
:1038700084F83D00211D206801F008FD012084F836
:10388000460000BF84F83E0001213F200155402042
:1038900001554120015500BF00BF012084F84200BE
:1038A00043200155442001554520015500BF01200A
:1038B00084F83D000020C9E7BD38000838B504464B
:1038C0002068B0F1804F18D100BF002000901A4846
:1038D000006840F00100184908600846006800F0E0
:1038E0000100009000BF00BF002211461C20FEF71F
:1038F000C9FF1C20FEF7B2FF1DE010492068884276
:1039000019D100BF002000900B48001D006840F452
:1039100000300949091D08600846006800F40030BD
:10392000009000BF00BF002211461920FEF7AAFF39
:103930001920FEF793FF38BD403802400044014093
:10394000014691F83D00012801D001207047022076
:1039500081F83D000868C06840F001000B68D8603D
:103960001A4B086898421BD00868B0F1804F17D0F6
:10397000174B0868984213D0164B086898420FD02E
:10398000154B086898420BD0144B0868984207D032
:10399000134B0868984203D0124B086898420CD128
:1039A0000868806800F00702062A0CD008680068E2
:1039B00040F001000B68186005E00868006840F0FE
:1039C00001000B6818600020C0E700000000014003
:1039D0000004004000080040000C004000040140CA
:1039E00000400140001800402DE9F04104460D461A
:1039F000002700BF94F83C00012802D10220BDE856
:103A0000F081012084F83C0000BF022084F83D00D2
:103A10002068866826F0770626F47F462068866050
:103A20002868502833D00CDC202850D004DC002833
:103A30004BD0102851D149E0302849D040284CD1F2
:103A400039E060282DD0702807D0B0F5805F03D012
:103A5000B0F5005F41D10DE041E0D5E902136A689D
:103A6000206801F083FC2068866846F077062068AD
:103A7000866034E0D5E902136A68206801F076FCBC
:103A80002068806840F480402168886027E0EA6808
:103A90006968206801F092FD5021206801F071FCF6
:103AA0001DE0EA686968206801F09BFD60212068DC
:103AB00001F067FC13E0EA686968206801F07EFDA8
:103AC0004021206801F05DFC09E000BF00BF00BF9D
:103AD0002968206801F055FC01E0012700BF00BF04
:103AE000012084F83D0000BF002084F83C0000BFA6
:103AF000384684E770477047704770B504462068C1
:103B0000C5682068066906F0020002281CD105F08D
:103B10000200022818D1401F216808610120207787
:103B20002068806900F0030020B12046D4F890108E
:103B3000884707E02046D4F8981088472046D4F8F4
:103B40009C1088470020207706F0040004281CD130
:103B500005F00400042818D1C04321680861022040
:103B600020772068806900F4407020B12046D4F8A6
:103B70009010884707E02046D4F8981088472046E0
:103B8000D4F89C1088470020207706F00800082809
:103B90001CD105F00800082818D1C043216808612D
:103BA000042020772068C06900F0030020B120467F
:103BB000D4F89010884707E02046D4F8981088473A
:103BC0002046D4F89C1088470020207706F010008B
:103BD00010281CD105F01000102818D1C04321680E
:103BE0000861082020772068C06900F4407020B187
:103BF0002046D4F89010884707E02046D4F8981063
:103C000088472046D4F89C1088470020207706F08B
:103C1000010050B105F0010038B16FF001002168DA
:103C200008612046D4F88010884706F0800080287C
:103C30000AD105F08000802806D1C04321680861C0
:103C40002046D4F8B010884706F0400040280AD13A
:103C500005F04000402806D1C04321680861204695
:103C6000D4F88810884706F0200020280AD105F0F3
:103C70002000202806D1C043216808612046D4F8DE
:103C8000A810884770BD000010B586B00446142106
:103C900001A8FCF716FC1149206888421CD100BF1E
:103CA000002000900E48006840F020000C49086099
:103CB0000846006800F02000009000BF00BF4020D0
:103CC00001900220029000200390049003200590B0
:103CD00001A90448FEF72AFC06B010BD00440140CB
:103CE000303802400014024070472DE9F04104468C
:103CF0000D461646002700BF94F83C00012802D16B
:103D00000220BDE8F081012084F83C0000BF36B1FC
:103D1000042E1BD0082E31D00C2E5ED145E0294652
:103D2000206801F037FB2068806940F008002168B6
:103D300088612068806920F004002168886120681B
:103D40008069296908432168886148E0294620681C
:103D500001F058FB2068806940F4006021688861A8
:103D60002068806920F4806021688861206880690B
:103D7000296940EA01202168886130E029462068ED
:103D800001F07EFB2068C06940F008002168C8612E
:103D90002068C06920F004002168C8612068C069FB
:103DA000296908432168C86119E02946206801F0A3
:103DB000A3FB2068C06940F400602168C8612068E6
:103DC000C06920F480602168C8612068C0692969E1
:103DD00040EA01202168C86101E0012700BF00BF5F
:103DE00000BF002084F83C0000BF384689E700008F
:103DF00010B504460CB9012010BD94F83D0060B91F
:103E0000002084F83C00204601F0A0FB206E08B999
:103E1000144820662046216E8847022084F83D0021
:103E2000211D206801F032FA012084F8460000BF0D
:103E300084F83E0001213F200155402001554120DA
:103E4000015500BF00BF012084F842004320015506
:103E5000442001554520015500BF012084F83D0054
:103E60000020C9E7693E00087047704770477047F7
:103E7000704710B5034600240AB9012010BD93F81D
:103E80003D00012857D11B2952D2DFE801F00E1066
:103E9000121416181A1C1E20222426282A2D30330C
:103EA00036393C3F4245484B4E009A6442E0DA6462
:103EB00040E01A653EE05A653CE09A653AE0DA6512
:103EC00038E01A6636E05A6634E09A6632E0DA661E
:103ED00030E01A672EE05A672CE09A672AE0DA672A
:103EE00028E0C3F8802025E0C3F8842022E0C3F84E
:103EF00088201FE0C3F88C201CE0C3F8902019E054
:103F0000C3F8942016E0C3F8982013E0C3F89C206F
:103F100010E0C3F8A0200DE0C3F8A4200AE0C3F825
:103F2000A82007E0C3F8AC2004E0C3F8B02001E00B
:103F3000012400BF2DE093F83D0048BB0E2924D298
:103F4000DFE801F007090B0D0F11131517191B1DE1
:103F50001F219A641BE0DA6419E01A6517E05A65BC
:103F600015E09A6513E0DA6511E01A660FE05A660B
:103F70000DE09A660BE0DA6609E01A6707E05A6717
:103F800005E09A6703E0DA6701E0012400BF00E082
:103F90000124204672E770477047F8B504460D4685
:103FA000164694F8420020282DD105B10EB9012003
:103FB000F8BD012020630020606332462946204678
:103FC00001F006FE0746206B012819D100BF002032
:103FD000009020680068009020684068009000BF52
:103FE00000BF00BF00BF21680C3151E8001F41F045
:103FF000100021680C3141E80002002AF3D100E0F2
:1040000001273846D4E70220D2E77047704770474F
:104010007047000070B50546284602F067F904466F
:10402000084850F8240058B1064951F8240003F01C
:1040300065FF054850F82400401C034941F824005E
:1040400070BD000068060020940600200146002292
:10405000002391F8412091F8423042EA0300704772
:104060002DE9F84F0446206805682068C668206876
:1040700047694FF00009CA4605F00F09B9F1000F72
:104080000AD105F0200038B106F0200020B120460A
:1040900001F00AFCBDE8F88FB9F1000F7CD007F001
:1040A000010018B906F49070002875D005F00100E1
:1040B00030B106F4807018B1606C40F001006064AB
:1040C00005F0040030B107F0010018B1606C40F059
:1040D0000200606405F0020030B107F0010018B181
:1040E000606C40F00400606405F0080048B106F020
:1040F000200010B907F0010018B1606C40F0080012
:104100006064606C002846D005F0200028B106F0FD
:10411000200010B1204601F0C7FB20684069C0F3C1
:10412000801A606C00F0080010B9BAF1000F2DD0B1
:10413000204601F03AFB2068406900F0400040282A
:1041400020D100BF00BF2168143151E8001F21F0C9
:1041500040002168143141E80002002AF3D100BF79
:10416000E06B50B17F48E16B0865E06BFDF7F6FD51
:1041700088B1E06B016D88470DE02046A16D88474E
:1041800009E009E02046A16D884704E02046A16DC2
:104190008847002060647DE7206B012878D105F016
:1041A0001000002874D006F010000028FAD000BFDC
:1041B000002000902068006800902068406800900F
:1041C00000BF00BF2068406900F04000402870D167
:1041D000E06B006840681FFA80F8B8F1000F58D013
:1041E000A08D404555DDA4F82E80E06BC069B0F588
:1041F000807F43D000BF00BF21680C3151E8001F11
:1042000021F4807021680C3141E80002002AF3D1CA
:1042100000BF00BF00BF2168143151E8001F21F02A
:1042200001002168143141E80002002AF3D100BFE7
:1042300000BF00BF2168143151E8001F21F0400089
:104240002168143141E80002002AF3D100BF202088
:1042500084F842000020206300BF00BF21680C31B9
:1042600051E8001F21F0100021680C3141E80002E4
:10427000002AF3D100BFE06BFDF71AFD0220606356
:10428000A08DE38DC01A81B22046E26E90470EE009
:1042900052E0A08D40450AD1E06BC069B0F5807F47
:1042A00005D102206063A18D2046E26E9047F1E6C1
:1042B000FFE7A08DE18D401A1FFA80F8E08DD0B3A2
:1042C000B8F1000F37D000BF00BF21680C3151E8B2
:1042D000001F21F4907021680C3141E80002002A8F
:1042E000F3D100BF00BF00BF2168143151E8001FA7
:1042F00021F001002168143141E80002002AF3D1C5
:1043000000BF202084F842000020206300BF00BFCF
:1043100021680C3151E8001F21F0100021680C3198
:1043200041E80002002AF3D100BF02206063414649
:104330002046E26E9047ADE605F0800030B106F011
:10434000800018B1204601F0AFFCA3E605F0400064
:1043500030B106F0400018B1204601F05CFA99E651
:1043600000BF97E60B56000810B504460CB90120B3
:1043700010BDA06900B100E000BF94F8410060B931
:10438000002084F84000204601F068FA206F08B948
:10439000164820672046216F8847242084F8410072
:1043A0002068C06820F400502168C860204601F0F1
:1043B000F9FA2068006920F49040216808612068BB
:1043C000406920F02A00216848612068C06840F4F4
:1043D00000502168C86000206064202084F84100FB
:1043E00084F842000020606300BFC1E74144000838
:1043F00010B504460E492068884217D10D48006860
:1044000020F010000B49086080210B48FDF794FF55
:104410004FF400710948FDF78FFFE06BFDF7B2FC28
:10442000A06BFDF7AFFC2520FEF702FA10BD0000DF
:1044300000100140443802400004024000000240E5
:1044400010B586B00446142101A8FCF73AF84D498E
:10445000206888427ED100BF002000904A48006852
:1044600040F01000484908600846006800F010005D
:10447000009000BF00BF00BF0020009042481438E9
:10448000006840F00200404914390860084600689E
:1044900000F00200009000BF00BF00BF00200090AD
:1044A0000846006840F0010008600846006800F017
:1044B0000100009000BF00BF802001900220029008
:1044C00000200390032004900720059001A92F48A5
:1044D000FEF72CF84FF400700190022002900020AB
:1044E0000390032004900720059001A92848FEF7B7
:1044F0001DF82848284908604FF0006048600021F6
:1045000025488160C1604FF48061016100214161F3
:104510008161C16101624162FDF78CFD08B1FCF768
:104520009EFC00BF1C48E063846300BF19487830DC
:104530001A4908604FF000604860402117488160C8
:104540000021C1604FF480610161002141618161FE
:10455000C16100E013E001624162FDF76BFD08B14B
:10456000FCF77DFC00BF0D48A063846300BF002200
:1045700011462520FEF786F92520FEF76FF906B0D3
:1045800010BD000000100140443802400004024009
:10459000000002404064024060050020C005002089
:1045A00010B5034600242AB9586C40F02000586426
:1045B000012010BD93F84100202825D10D291CD2DF
:1045C000DFE801F007090B0D0F1113151B1B1B175B
:1045D00019009A6417E0DA6415E01A6513E05A6569
:1045E00011E09A650FE0DA650DE01A660BE05A6695
:1045F00009E01A6707E05A6705E0586C40F02000B0
:104600005864012400BF17E093F8410078B90B29E2
:1046100002D00C2904D101E01A6707E05A6705E0CF
:10462000586C40F020005864012400BF04E0586C2E
:1046300040F02000586401242046BAE702460023D7
:1046400029B9506C40F0200050640120704700BF31
:1046500092F84000012801D10220F7E7012082F8FA
:10466000400000BF92F84100202801D1D16604E04B
:10467000506C40F020005064012300BF002082F8FD
:10468000400000BF1846E1E770477047F7B50446A1
:10469000154694F8410020283ED1019800B10DB98B
:1046A0000120FEBD01982062A584E584002060649D
:1046B000212084F841001948A16BC8631848A16BF8
:1046C00008641848A16BC8640020A16B086501AE9E
:1046D00023681A1D31682B46A06BFDF721FD30B110
:1046E00010206064202084F841000120D9E76FF099
:1046F00040002168086000BF00BF2168143151E804
:10470000001F41F080002168143141E80002002AB6
:10471000F3D100BF0020C4E70220C2E745570008DC
:104720009D5700081D5600087047704700BFFEE700
:1047300070B504460D461646308888B9184890ED85
:10474000000A184880ED000A154890ED010A154846
:1047500080ED010A124890ED020A124880ED020A2B
:10476000324611490F4805F093F80E4890ED000AC3
:1047700085ED000A90ED010A85ED010A90ED020A2F
:1047800085ED020AB7EE000A84ED000AB7EE000AD2
:1047900084ED010AB7EE000A84ED020A70BD000044
:1047A00028160020341600200417002091ED000A7E
:1047B0000E4A82ED000A91ED010A82ED010A91EDA7
:1047C000020A82ED020A92ED000A094A82ED000A0D
:1047D000064A92ED010A064A82ED010A034A92ED69
:1047E000020A034A82ED020A7047000028160020E0
:1047F0003416002010B50F480F49086003204860A8
:1048000000210D488160C1604FF4802101614FF4A7
:10481000E001416100210176417681760121C17676
:104820000021017701214177FCF7DAFF08B1FCF79D
:1048300016FB10BD006400407801002010B50F4841
:104840000F4908600320486000210D488160C16065
:104850004FF4802101614FF4E001416100210176B4
:10486000417681760121C1760021017701214177CE
:10487000FCF7B6FF08B1FCF7F2FA10BD0068004083
:10488000DC01002008B500BF002000901648006839
:1048900040F48000144908600846006800F4800075
:1048A000009000BF00BF002211463820FDF7EAFF4C
:1048B0003820FDF7D3FF002211463A20FDF7E2FF32
:1048C0003A20FDF7CBFF002211463B20FDF7DAFF2F
:1048D0003B20FDF7C3FF002211464620FDF7D2FF23
:1048E0004620FDF7BBFF08BD3038024000B587B059
:1048F000142102A8FBF7E5FD00BF002001905B48F2
:10490000006840F00200594908600846006800F05D
:104910000200019000BF00BF00BF002001900846C8
:10492000006840F0010008600846006800F00100DF
:10493000019000BF00BF00BF002001900846006842
:1049400040F0080008600846006800F00800019088
:1049500000BF00BF00BF002001900846006840F083
:10496000800008600846006800F08000019000BFE9
:1049700000BF00BF002001900846006840F0200002
:1049800008600846006800F02000019000BF00BFEA
:1049900000BF002001900846006840F00400086055
:1049A0000846006800F00400019000BF00BF00BF8F
:1049B000002001900846006840F04000086008466A
:1049C000006800F04000019000BF00BF00221021ED
:1049D0002748FDF7A5FE002201212648FDF7A0FE8D
:1049E000102002900120039004900220059002A95B
:1049F0001F48FDF79BFD302002904FF48810039074
:104A00000120049002A91C48FDF790FD01200290AE
:104A10004FF4881003900120049002A91748FDF775
:104A200085FD01200290039004900220059002A9C8
:104A30001048FDF77BFD002211460620FDF722FFFE
:104A40000620FDF70BFF002211460A20FDF71AFF92
:104A50000A20FDF703FF002211461720FDF712FF81
:104A60001720FDF7FBFE07B000BD00003038024004
:104A7000000002400004024000080240001802400A
:104A800010B50E480E4908604FF48270486000214E
:104A90000B488160C160016101214161490281616E
:104AA0003021C16100210162416281620A21C1623B
:104AB000FEF7EEFB08B1FCF7D2F910BD0030014063
:104AC0004002002000B587B01C216846FBF7F9FCC6
:104AD000154816490860002048600021134881608D
:104AE00041F28731C160002101618161FEF7AAFEB8
:104AF00008B1FCF7B4F90D48FFF77AF908B1FCF7F3
:104B0000AEF96020009000200190029004900022F5
:104B100069460648FFF7E9F808B1FCF7A0F9034831
:104B2000FFF7B2F807B000BD004401403404002094
:104B300000B587B000200390049005900690019086
:104B400002904FF0804014490860532048600021D3
:104B50001148816040F2E731C1600021016181614B
:104B6000FEF770FE08B1FCF77AF94FF4805003901D
:104B700003A90948FEF738FF08B1FCF770F90020D7
:104B80000190029001A90448FEF702FE08B1FCF76B
:104B900066F907B000BD00008003002010B50B4887
:104BA0000B4908604FF4E1304860002108488160FB
:104BB000C16001610C21416100218161C161FFF788
:104BC000D3FB08B1FCF74BF910BD00000010014009
:104BD000E804002000B52DED088B0246F0EE403AC7
:104BE000B0EE604AF0EE414AB0EE616AB0EE425A71
:104BF000F0EE625AB0EE43BAB0EE4B3AB5EEC06A90
:104C0000F1EE10FA09D1B5EEC05AF1EE10FA04D166
:104C1000F5EEC05AF1EE10FA7DD066EE060A45EECA
:104C2000050A45EEA50AB0EE600A04F05BFEF0EE60
:104C3000402A26EE220AB0EE406A25EE220AB0EEA5
:104C4000405A25EEA20AF0EE405A92ED010AD2ED4A
:104C5000030A20EE200AD2ED000A92ED021AB0EE0D
:104C6000408A00EEC18A92ED000AD2ED010A20EEE0
:104C7000200AD2ED020A92ED031AF0EE408A40EECD
:104C8000818AD2ED000A92ED001AB6EE000A10EE0B
:104C9000810AD2ED030A92ED031AB0EE409A00EEBB
:104CA000819A25EE090AF0EE409A45EEE89A25EE43
:104CB000880AB0EE40AA06EE49AA26EE280AF0EECF
:104CC00040AA45EE48AA884890ED000AB5EEC00A11
:104CD000F1EE10FA46DDB7EE000AC0EE030A90EDE1
:104CE000000A20EE291A814890ED000A01EE200A00
:104CF00080ED000AB7EE000AC0EE030A7A4890ED94
:104D0000000A20EE0A1A7A4890ED000A01EE200A05
:104D100080ED000A00E04DE0B7EE000AC0EE030AA5
:104D2000714890ED000A20EE2A1A724890ED000AB0
:104D300001EE200A80ED000A6C4890ED000A33EE87
:104D4000800AF0EE403A6A4890ED000A34EE000A1C
:104D5000B0EE404A674890ED000A34EE800AF0EE6B
:104D6000404A0EE09FED640A604880ED000A9FED26
:104D7000620A5F4880ED000A9FED5F0A5D4880EDA2
:104D8000000A5E48D0ED000AB0EE630A00EEA90A00
:104D9000F0EE403AD0ED000AB0EE440A00EE8A0A86
:104DA000B0EE404AD0ED000AB0EE640A00EEAA0A66
:104DB000F0EE404AF7EE000A80EE830AF6EE000AB3
:104DC00020EE200A20EE230AF0EE403AF7EE000A29
:104DD00080EE830AF6EE000A20EE200A20EE040A96
:104DE000B0EE404AF7EE000A80EE830AF6EE000AC3
:104DF00020EE200A20EE240AF0EE404AD2ED006AAE
:104E000092ED017AD2ED027AB1EE470A20EE230A42
:104E100007EEC40AD2ED030A00EEE40AD2ED000A5E
:104E200030EE200A82ED000A26EEA30A07EEA40A5D
:104E3000D2ED030A00EEC40AD2ED010A30EE200AD8
:104E400082ED010A26EE840A07EE640AD2ED030A17
:104E500000EEA30AD2ED020A30EE200A82ED020A29
:104E600026EEA40A07EE040A07EEE30AD2ED030ACF
:104E700030EE200A82ED030AD2ED000A60EEA00AAD
:104E800092ED011AD2ED011A41EE210A92ED021AB9
:104E9000D2ED021A41EE210A92ED031AD2ED031A65
:104EA00041EE210AB0EE600A04F01CFDF0EE402A4B
:104EB00092ED000A20EE220A82ED000A92ED010A2C
:104EC00020EE220A82ED010A92ED020A20EE220A69
:104ED00082ED020A92ED030A20EE220A82ED030A15
:104EE000BDEC088B00BD00007000002074000020A5
:104EF000780000207C000020000000006C000020F2
:104F000000BFFEE700BFFEE77047704710B50248DC
:104F1000FEF710F910BD00004002002070B50546F4
:104F2000AC6B0020E087E0862046216F884770BD8B
:104F300070B50546AC6B2068406820F0030021681E
:104F40004860606D40F010006065012084F85100F9
:104F50002046216F884770BD70B50446A56B284672
:104F6000A96E884770BD70B50446A56B2846E96EEA
:104F7000884770BD70B50546AC6BFDF7D7FB06469C
:104F80002868006800F48070B0F5807F2BD020681E
:104F9000406820F0200021684860A06850B960682F
:104FA000B0F5827F06D12068406820F003002168B8
:104FB000486005E02068406820F0010021684860F2
:104FC00032466421204600F047F808B12020606591
:104FD0000020E087012084F85100606D18B1204660
:104FE000216F884770BD2046E16D884700BFF9E713
:104FF00070B50546AC6BFDF799FB0646286800685E
:1050000000F48070B0F5807F21D02068406820F0E7
:1050100020002168486032466421204600F066F88E
:1050200018B1606D40F0200060652068406820F095
:105030000300216848600020E086E087012084F8B2
:105040005100606D18B12046216F884770BD204621
:10505000216E884700BFF9E7F8B504460E461546AD
:105060006068B0F5827F0DD1A068B0F5004F03D025
:10507000A068B0F5806F05D12068006820F040007E
:10508000216808606068B0F5827F1FD1A068B0F524
:10509000806F0DD03346002280212046009500F01D
:1050A00069F808B3606D40F0200060650320F8BD2A
:1050B0003346002201212046009500F05BF898B1AC
:1050C000606D40F0200060650320F0E73346002269
:1050D00001212046009500F04DF828B1606D40F0A8
:1050E000200060650320E2E70020E0E77CB504468D
:1050F0000E4615463346012202212046009500F057
:1051000039F828B1606D40F02000606503207CBD57
:10511000164800681821B0FBF1F01549B0FBF1F01A
:105120004FF47A71484301906068B0F5827F0DD1E9
:105130003346002280212046009500F01BF898B1EC
:10514000606D40F0200060650320E0E700BF01983B
:1051500000B908E00198401E019020688068C0F303
:10516000C0100028F3D100BF0020D0E704000020C9
:1051700040420F002DE9F84F04460D4690461E466A
:10518000DDF82890FDF7D2FAA0EB0900371AFDF7F9
:10519000CDFA82462C480068C0F3CB3078430090AB
:1051A00046E0701C002843D0FDF7C0FAA0EB0A00CF
:1051B000B84200D2A7BB2068406820F0E000216818
:1051C00048606068B0F5827F0DD1A068B0F5004FEF
:1051D00003D0A068B0F5806F05D12068006820F08A
:1051E000400021680860A06AB0F5005F0DD100BFE3
:1051F0002068006820F4005021680860206800687A
:1052000040F400502168086000BF012084F851007C
:1052100000BF002084F8500000BF0320BDE8F88FD5
:10522000FFE7009808B9002702E00098401E0090B0
:10523000206880682840A84201D1012000E00020B9
:105240004045AED10020E9E704000020704710B5CA
:10525000FDF772FA10BD00000348006840F47000CA
:10526000014908607047000088ED00E010B5024871
:10527000FEF743FC10BD00003404002010B50248C6
:10528000FEF73BFC10BD00008003002010B5026853
:105290002B4B98420ED0B0F1804F0BD0294B984247
:1052A00008D0294B984205D0284B984202D0284B71
:1052B000984203D122F070024B681A43204B984267
:1052C00020D0B0F1804F1DD01E4B98421AD01E4BFB
:1052D000984217D01D4B984214D01D4B984211D0C4
:1052E0001C4B98420ED01C4B98420BD01B4B984243
:1052F00008D01B4B984205D01A4B984202D01A4B4B
:10530000984203D122F44072CB681A4322F0800302
:105310004C6943EA04028B68C3620B688362084BE2
:10532000984202D00A4B984201D10B69036303688B
:1053300043F00403036001234361026010BD0000D9
:10534000000001400004004000080040000C004044
:105350000004014000400140004401400048014079
:1053600000180040001C00400020004030B50C46F2
:10537000816821F47F4142EA032525432943816066
:1053800030BD0A46816821F0700142F007031943DD
:105390008160704730B5026A056A25F00105056233
:1053A0004368846924F0700424F003040D682C43DE
:1053B00022F002028D682A43104DA84200D103E07A
:1053C0000F4DA84206D100BF22F00802CD682A4343
:1053D00022F00402094DA84202D0094DA84207D18B
:1053E00023F4807323F400734D692B438D692B43A1
:1053F000436084614D684563026230BD0000014036
:105400000004014030B5026A056A25F01005056206
:105410004368846924F4E04424F440740D6844EA49
:10542000052422F020028D6842EA0512124DA8429E
:1054300000D103E0114DA84207D100BF22F0800245
:10544000CD6842EA051222F040020B4DA84202D07C
:105450000A4DA84209D123F4806323F400634D6907
:1054600043EA85038D6943EA8503436084614D689F
:105470008563026230BD000000000140000401406D
:1054800030B5026A056A25F4807505624368C4690F
:1054900024F0700424F003040D682C4322F40072FD
:1054A0008D6842EA0522124DA84200D103E0114D59
:1054B000A84207D100BF22F40062CD6842EA05226B
:1054C00022F480620A4DA84202D00A4DA84209D1B6
:1054D00023F4805323F400534D6943EA05138D6987
:1054E00043EA05134360C4614D68C563026230BD81
:1054F000000001400004014030B5036A056A25F44C
:10550000805505624468C26922F4E04222F4407288
:105510000D6842EA052223F400538D6843EA0533FF
:10552000084DA84202D0084DA84204D124F480447A
:105530004D6944EA85144460C2614D6805640362A4
:1055400030BD000000000140000401400E4940F859
:10555000801F0E4941600E4981600E49C1600E49AD
:1055600001610E4941610E4981610E49C1610E49D7
:1055700001620E4941620E4981620E49C1620E49C3
:1055800001638038704700006F3E0008713E0008DC
:10559000973F0008993F0008F73A0008F93A0008D9
:1055A000E93C00086B3E00086D3E0008F53A000833
:1055B0008D3700088F3700088B37000830B50B4651
:1055C0001446026A056A25F001050562816921F029
:1055D000F00141EA041122F00A021A4381610262D9
:1055E00030BD30B50B461446026A056A25F0100539
:1055F0000562816921F4704141EA043122F0A00280
:1056000042EA03128161026230BD70B50546AC6B9F
:105610000020E0852046A16D884770BD70B5054625
:105620000026AC6B20684069C0F3C01694F84100B6
:10563000212805D126B10020E084204600F0FBF8A7
:1056400020684069C0F3801694F84200222805D1F2
:1056500026B10020E085204600F0A7F8606C40F0FD
:10566000100060642046A16D884770BD70B5054686
:10567000AC6B2868006800F48070002842D1E08597
:1056800000BF00BF21680C3151E8001F21F4807079
:1056900021680C3141E80002002AF3D100BF00BFAD
:1056A00000BF2168143151E8001F21F0010021687A
:1056B000143141E80002002AF3D100BF00BF00BF4F
:1056C0002168143151E8001F21F040002168143195
:1056D00041E80002002AF3D100BF202084F84200F4
:1056E000206B01280ED100BF00BF21680C3151E8AA
:1056F000001F21F0100021680C3141E80002002A4F
:10570000F3D100BF00206063206B012804D1A18D7C
:105710002046E26E904702E02046616D884770BDEA
:1057200070B50546AC6B01206063206B012805D184
:10573000A08D41082046E26E904702E02046216D90
:10574000884770BD70B50546AC6B2868006800F4EA
:105750008070F8B90020E08400BF00BF21681431D8
:1057600051E8001F21F080002168143141E8000257
:10577000002AF3D100BF00BF00BF21680C3151E8FF
:10578000001F41F0400021680C3141E80002002A6E
:10579000F3D102E02046E16C884770BD70B5044645
:1057A000A56B2846A96C884770BD00BF00BF026882
:1057B0000C3252E8002F22F4907102680C3242E859
:1057C0000013002BF3D100BF00BF00BF02681432EA
:1057D00052E8002F22F001010268143242E800135F
:1057E000002BF3D100BF016B01290ED100BF00BF18
:1057F00002680C3252E8002F22F0100102680C32CD
:1058000042E80013002BF3D100BF202180F84210A2
:1058100000210163704710B504462068C06820F07D
:1058200040002168C860202084F841002046E16CD7
:105830008847002010BD00BF00BF02680C3252E84C
:10584000002F22F0C00102680C3242E80013002B46
:10585000F3D100BF202180F84110704709498164CD
:105860000949C164094901650949416509498165D9
:105870000949C16509490166094941660949C16685
:10588000704700002B470008294700088B46000896
:1058900089460008154000080D4000081140000826
:1058A0000F4000080B400008F8B50446002500260C
:1058B00094F84200222873D1A068B0F5805F0BD124
:1058C000206948B9A66A20684068C0F308003080A3
:1058D000A06A801CA06214E0A56AA068B0F5805F91
:1058E00003D0A06828B9206918B9206840682870DA
:1058F00004E02068406800F07F002870A06A401C27
:10590000A062E08D401E80B2E085002846D120686C
:10591000C06820F020002168C8602068C06820F4BA
:1059200080702168C8602068406920F0010021680B
:105930004861202084F8420000206063206B012829
:1059400026D10020206300BF00BF21680C3151E840
:10595000001F21F0100021680C3141E80002002AEC
:10596000F3D100BF2068006800F0100010280AD1B1
:1059700000BF002000902068006800902068406808
:10598000009000BF00BFA18D2046E26E904702E06C
:105990002046616D88470020F8BD01E00020FBE74C
:1059A0000220F9E72DE9F84F04462068006920F449
:1059B0004050E1680843216808612169A0680843F4
:1059C00061690843E169084300902068C06849F2B2
:1059D0000C618843009908432168C86020684069C9
:1059E00020F44070A1690843216848617649206825
:1059F000884203D075492068884203D1FDF76CF8CE
:105A0000814602E0FDF758F88146E069B0F5004FA5
:105A10006CD102206168A0FB015003461920A9FB4C
:105A2000007001462A463846FAF746FC6421B0FB6E
:105A3000F1F04FEA001A02206168A0FB01510B4609
:105A40001920A9FB00712A463846FAF735FC83462F
:105A500002206168A0FB015003461920A9FB0071D8
:105A60002A463846FAF728FC6421B0FBF1F000EB37
:105A7000C00101EB0010ABEB8000322101EBC00054
:105A80006421B0FBF1F000F0F8000AEB400A0220BC
:105A90006168A0FB015003461920A9FB0070014674
:105AA0002A463846FAF708FC834602206168A0FBC4
:105AB000015003461920A9FB00712A463846FAF71F
:105AC000FBFB6421B0FBF1F000EBC00101EB001027
:105AD000ABEB8000322101EBC0006421B0FBF1F0A0
